S123040010CE7FB910FF7F0EBD0F25BD0FE98E100CBD0F628E7F37BF7F348E7F80BF7F36F1
S12304208603B77F17200FBD0FE97C7F16BE7F12A684813B271A8E101EBD0F62BD0EA0C161
S12304400327E4BE7F34BF7F12A601BD0B6427D78601BD0A9927D02E20BE7F34BC7F1427E5
S123046007BD0CCF300120F4865EBD0F91BD0FE920C4BD0B4225B020E01F89483404ABE028
S1230480C6048B91C900340234041F41AE84350435026E847E04E87E053F7E05517E05596B
S12304A07E05617E058F7E05EF7E06067E063F7E06447E06B07E07857E07CD7E085E7E08C1
S12304C0B87E08C07E08C87E08F07E09197E09B67E0A4D7E0A607E055D7E05557E08E07E20
S12304E008E87E08D07E08D8BE7F0E30017F7FE38D198D178D158D138D198D178D158D13DF
S12305008D1B8E7F0EBD0CE47E04728D10BD0CDB3001398D08BD0CE43001300139BD0CCF53
S12305207C7FE38605BD0B03BD0CD5398E1020BD0F62BE7F0E6D0C26026A0B6A0C20A9BD63
S12305400C252708BE7F1BBF7F216E84BE7F216E841A1020371A4020331CEF202F1CEF208B
S12305602BBD0BDA2F23BD0C252F1EBE7F1DA684BE7F1BA7843001BF7F1BBE7F1DBC7F1FD8
S1230580270A3001BF7F1D20E57E04597E0472BD0C252B31271FBE7F28A684813F2605B606
S12305A07F2AA784BE7F1BBF7F28A684B77F2A863FA7842034BE7F28A684813F262BB67F02
S12305C02AA78420248604BD0A992F20BE7F28A684813F27088E102FBD0F62200C8E1037CB
S12305E0BD0F628E7F28BD0CE47E04727E04598603BD0A992B092E028601B77F1820EAB636
S12306007F18340220268603BD0A992B1A2E028601B77F198E062230014A26FBA684B77FDD
S12306201A20C6100A0802B67F1934028604BD0A9935042FB78603F77FE3BD0B0320AA107E
S1230640FE7F0E3BBD0BDA2F61BE7F1DBF7FC58606BD0A992B544AB77FE35F5C8E7FC57D69
S12306607FE32B2C5A260CBD0FE9BD0CE4BD0CCFF67F1ABE7FC57D7FE32E05BD0CCF201BC1
S1230680A6844D2604862E2002862BBD0F91200EBD0CCFBD0CE4BD0CD5AE84BD0CDBBC7FAF
S12306A01F270A3001BF7FC520B27E04597E0472BD0BDA2B5227F3BE7F1DBC7F1F2713BD2D
S12306C00C252FE6B67F1CA784BC7F1F27DF300120F5BF7FC5BD0C25270E2DCEB67F1CBE7E
S12306E07FC5A784300120EABE7F12A684810A1026008F8E7FC5BD0CE4BD0CCFBD0EA0BE43
S12307007F34BF7F1220CE8605BD0A992B7127723402BD0C2535022F66BE7F0EF67F1C8177
S1230720012604E70120E081022604E70220D881032604E70320D081042604E70420C88189
S1230740052609B67F1BA705E70620BB81062609B67F1BA707E70820AE81072609B67F1B25
S1230760A709E70A20A181082609B67F1BA70BE70C209481092608BE7F1BBF7F0E20887E30
S123078004597E0472BD0BDA271B2BF3BE7F1DBF7F23BE7F1FBF7F258D22B77F278E7F2748
S12307A0BD0CDB20DD8D15B17F2726088E103EBD0F6220CE8E1041BD0F6220C64FBE7F23D3
S12307C0301F3001AB84BC7F2526F74339BD0BDA102F00848E7FCBBF7FC77F7FC9BD0C2576
S12307E0271B2D747C7FC9B67FC981062E6AB67F1CBE7FC7A7843001BF7FC720E07D7FC9B6
S12308002756BE7F1D301FBF7F148E7FCABF7FE47F7FCABD0DB6BD0DA83404A1E02707BC06
S12308207F1F273720F0BF7FC57C7FCAB67FCAB17FC92719BD0DB6BD0DA83404A1E027E9ED
S1230840BE7FC5BC7F1F2713BF7F1420BD8E7FC5BD0CE4BD0CCF20E87E04597E0472BD0B19
S1230860DA2FF5BE7F1DBF7FC5A68434026F846D8427058E105120206A8486FFA1842705B6
S12308808E105D2013BE7FC53502A784BC7F1F27CA3001BF7FC520D1BF7FC98E7FC5BD0CB0
S12308A0E4BD0CD5BE7FC5BD0CDBBD0CCFBE7FC9BD0F62BD0FE920CDBD0C1ABF7F00204C11
S12308C0BD0C1ABF7F042044BD0C1ABF7F08203CBD0C1ABF7F0A2034BD0C1ABF7F0C202C0E
S12308E0BD0C1ABF7F022024BD0C1ABF7F06201CBD0C1ABF7F1DBD0C1ABF7F1BBD0BB48EA6
S1230900106F8D0BBD0BC78E10778D037E0472BD0F628E7F1FBD0CE439BD0BDA7F7FCD8661
S123092002BD0A992715102F00808101270220EFBD0C1ABF7F2F7C7FCD20E47D7FCD27038D
S12309407C7F2E8D688E1082BD0F62B67F20B07F1EF67F1FF27F1D260481102502860F8B61
S123096004B77FC98003B77FCB8E1095BD0F625F8E7FC98D398E7F1D8D348D32BE7F1D8DFF
S12309802D7A7FCB26F9BF7F1D5334041F418D1E3504BE7F1D301FBC7F1F26AF8E109ABD4C
S12309A00F628D097F7F2E7E04727E045939EB84BD0CDB3001398607BD0A992BED2709BD89
S12309C00C1ABF7F2C7C7F2BBD0F73815326F9BD0F738139272F813126EE7F7FEEBD0A194A
S12309E08002B77FED8D248D307A7FED2706A784300120F37C7FEE27CF8E1041BD0F628EE4
S1230A007FC5BD0CE47F7F2B7E04728D0CB77FC58D07B77FC6BE7FC5398D15484848481F84
S1230A20898D0D3404ABE01F89FB7FEEF77FEE39BD0F7380302B0F81092F0A81112B0781EE
S1230A40162E038007398E10A9BD0F6239BD0C1A8D037E0472B67FEB4A26FD301F26F63945
S1230A60BD0FE98E0DC1C604F77FC5C60CA680810D2706BD0F915A26F4A684810A27147A6E
S1230A807FC52605BD0FE920DD8620BD0F915A26F820D8BD0FE97E0472B77FE2BD0B4224CF
S1230AA0024F39BE7F10B67FE2C60A8D7CBF7FE47F7FE37C7FE3BE7F12BF7F147F7FE1BD4D
S1230AC00DA8BD0B6F2616BD0DB6810A2719810D27153404A1E0261B7C7FE120E2B67FE3E5
S1230AE0BE7F14BF7F12397D7FE12707BD0B6F26ECA684810A2709810D27B8BD0DB620F3DF
S1230B004F4A39BF7FDB34048E0DC0C60A8D1AB67FE3C60D8D133001A684810D2705BD0F70
S1230B209120F3BE7FDB350439B77FC7F77FC85F5CF17FC7270B3001A684B17FC827F12099
S1230B40F5391CFE7D7F162E0CBE7F12A6848D1426031A0139E6018D16260139BD0DA8BF4B
S1230B607F1220E5810D2706810A2702813B3934041F988DEF35042735B67F17810126067D
S1230B80C120262D202881022606C12C2623201E81032606C120271620F081042615C13023
S1230BA02D0CC1392F0BC1412D04C15A2F038601394F393FB67F1EBB7F1CB77F20B67F1D6C
S1230BC0B97F1BB77F1F39B67F1EB07F1CB77F20B67F1DB27F1BB77F1F398D492E032D09D3
S1230BE039BE7F1BBF7F1D200DBE7F14A684813A260C8D1A2F0EBE7F1BBF7F1F200D812108
S1230C0027034F4A398D072FFB8DA9860139BF7F12BE7F1BBF7F1D8D0C398D092E037E0402
S1230C2059BE7F1B39BF7FDF7F7F1B7F7F1CBE7F12BF7F14BD0B422405BE7FDF4F39BD0D34
S1230C40A8BD0B6F2665C0302B6DB67F18810127088102271E81032741C1092F0AC1112BEC
S1230C6056C1162E52C0078D548D52FA7F1CF77F1C20CBC1092E408D49BE7F1BBF7FE98D10
S1230C803C4FFB7FEAB97FE9252DFB7F1CB97F1B2525F77F1CB77F1B20A4C1072E198D1D5B
S1230CA08D20FA7F1CF77F1C7E0C3EBE7F14BF7F12BE7FDF860139BE7FDF4F4A398D038D0C
S1230CC00139787F1C797F1B250139326220E88620BD0F9139863DBD0F91393404C6018D94
S1230CE00C3504393404C6028D03350439BF7FDD3402AE84BF7FE7B67F198101270C810242
S1230D00271E810327638104277D58BD0D9BBD0D9B840F81092F028B078D7A5A26ED203984
S1230D205A270B8E0D5FB67FE7F67FE820078E0D634FF67FE77F7FE6E001A28425057C7FD0
S1230D40E620F5EB01A9843402B67FE68D473502300130018C0D6926DC3502BE7FDD392708
S1230D601003E80064000A0001584FC1022E068D2A8D2220058D298D1C5C8D1F8D2284073B
S1230D808D135A26F520D25858588D1484018D055A26F720C48B30BD0F91398D038D013985
S1230DA0787FE8797FE74939BE7F143001E684BF7F147F7F1639BE7FE43001A684BF7FE4C6
S1230DC0395245470D474F544F0D5345490D434C490D434F50590D425245414B0D4942414C
S1230DE053450D44424153450D434F4E54494E55450D444953504C41590D5345540D5645B5
S1230E00524946590D5345415243480D544553540D494E540D4E4D490D5357490D434F4DAF
S1230E20504152450D44554D500D4C4F41440D44454C41590D48454C500D434C460D5345DD
S1230E40460D464952510D52535256440D535749320D535749330D0A544F0D0A4845580D43
S1230E604445430D4F43540D42494E0D0A3F0D0A2E43430D2E410D2E420D2E44500D2E584D
S1230E800D2E590D2E550D2E50430D2E530D0A444154410D555345440D0A46524F4D0D0AFD
S1230EA0BE7F345FBC7F3626098E1026BD0F62C60339BD0F73847F811A2604BD0FE9398154
S1230EC00D2704810A260D3001A7847D7F312603BD0FE939810326081F89865EBD0F9139A4
S1230EE08108272981602306817A220280203001A784C10827041F8920091F89865CBD0FD5
S1230F00911F987D7F312603BD0F912097BC7F342792C10827071F89865CBD0F91A68430BB
S1230F201F20E01A108601B77F18B77F198610B77F1A8648B77F337F7F2B7F7F2E7F7F319F
S1230F408603B7A000B7A0008615B7A000B7A0008E052CBF7F088E0DC0BF7F108600B77FA3
S1230F60EB393402A684810427068D25300120F4350239BF7FDB7D7F2B26058EA001200313
S1230F80BE7F2C301FA684850127FAA601BE7FDB3934047D7F2E2724BF7FDBBE7F2FC602D2
S1230FA0F17F2E270A301FE58427FCA7012007A7843001BF7F2FBE7FDB350439810A2603AD
S1230FC0350439810D26058D20350439F67F32F17F332C0BCB0AF17F332D06812026028D41
S1230FE0087C7F328D1735043934023404860D8D0C860A8D087F7F3235043502393402864E
S123100002B5A00027FB3502B7A001394D4F4E444542203638303920312E30300D042A04C1
S12310200D5357493A04544F4F204C4F4E47044E4F542053455404534554204020044F4B1D
S123104004434845434B53554D204552524F52200443414E275420434C4541520443414EBD
S123106027542053455420544F204F4E45530453554D20495320042C2044494646204953D3
S123108020040D0A53303036303030303438343435323142040D0A5331040D0A5339303311
S12310A03030303046430D0A0443484152204E4F54204845580D04BE7F006E84BE7F026EA7
S12310C084BE7F046E84BE7F066E847E040010FF7F0EBE7F086E8410FF7F0EBE7F0A6E84F6
S12310E010FF7F0EBE7F0C6E847E0A557E07BC7E0DA87E0DB67E0BDA7E0C257E0B427E0B1D
S12311006F7E0B647E0A997E0B037E0CDB7E0CE47E0EA07E0F627E0FE97E0F917E0FFD7E38
S11B11200F737E04277E040010C610E010D710BC10B710CE10C110CB3C
S9030000FC
