S123040010CE7FB910FF7F0EBD0F21BD0FE58E1008BD0F5E8E7F37BF7F348E7F80BF7F3601
S12304208603B77F17200FBD0FE57C7F16BE7F12A684813B271A8E101ABD0F5EBD0E9CC171
S12304400327E4BE7F34BF7F12A601BD0B6227D78601BD0A9727D02E20BE7F34BC7F1427E9
S123046007BD0CCD300120F4865EBD0F8DBD0FE520C4BD0B4025B020E01F89483404ABE034
S1230480C6048B91C900340234041F41AE84350435026E847E04E87E053D7E054F7E055771
S12304A07E055F7E058D7E05ED7E06047E063D7E06427E06AE7E07837E07CB7E085C7E08D5
S12304C0B67E08BE7E08C67E08EE7E09177E09B47E0A4B7E0A5E7E055B7E05537E08DE7E36
S12304E008E67E08CE7E08D6BE7F0E30017F7FE38D198D178D158D138D198D178D158D13E5
S12305008D198E7F0EBD0CE27E04728D0EBD0CD93001398D06BD0CE2300239BD0CCD7C7F96
S1230520E38605BD0B01BD0CD3398E101CBD0F5EBE7F0E6D0C26026A0B6A0C20ABBD0C2339
S12305402708BE7F1BBF7F216E84BE7F216E841A1020371A4020331CEF202F1CEF202BBDD4
S12305600BD82F23BD0C232F1EBE7F1DA684BE7F1BA7843001BF7F1BBE7F1DBC7F1F270A93
S12305803001BF7F1D20E57E04597E0472BD0C232B31271FBE7F28A684813F2605B67F2A90
S12305A0A784BE7F1BBF7F28A684B77F2A863FA7842034BE7F28A684813F262BB67F2AA7DA
S12305C08420248604BD0A972F20BE7F28A684813F27088E102BBD0F5E200C8E1033BD0FDE
S12305E05E8E7F28BD0CE27E04727E04598603BD0A972B092E028601B77F1820EAB67F1873
S1230600340220268603BD0A972B1A2E028601B77F198E062030014A26FBA684B77F1A203E
S1230620C6100A0802B67F1934028604BD0A9735042FB78603F77FE3BD0B0120AA10FE7F3F
S12306400E3BBD0BD82F61BE7F1DBF7FC58606BD0A972B544AB77FE35F5C8E7FC57D7FE388
S12306602B2C5A260CBD0FE5BD0CE2BD0CCDF67F1ABE7FC57D7FE32E05BD0CCD201BA68403
S12306804D2604862E2002862BBD0F8D200EBD0CCDBD0CE2BD0CD3AE84BD0CD9BC7F1F279F
S12306A00A3001BF7FC520B27E04597E0472BD0BD82B5227F3BE7F1DBC7F1F2713BD0C2346
S12306C02FE6B67F1CA784BC7F1F27DF300120F5BF7FC5BD0C23270E2DCEB67F1CBE7FC56D
S12306E0A784300120EABE7F12A684810A1026008F8E7FC5BD0CE2BD0CCDBD0E9CBE7F34DC
S1230700BF7F1220CE8605BD0A972B7127723402BD0C2335022F66BE7F0EF67F1C81012607
S123072004E70120E081022604E70220D881032604E70320D081042604E70420C881052685
S123074009B67F1BA705E70620BB81062609B67F1BA707E70820AE81072609B67F1BA709A0
S1230760E70A20A181082609B67F1BA70BE70C209481092608BE7F1BBF7F0E20887E045983
S12307807E0472BD0BD8271B2BF3BE7F1DBF7F23BE7F1FBF7F258D22B77F278E7F27BD0CDE
S12307A0D920DD8D15B17F2726088E103ABD0F5E20CE8E103DBD0F5E20C64FBE7F23301F5F
S12307C03001AB84BC7F2526F74339BD0BD8102F00848E7FCBBF7FC77F7FC9BD0C23271B87
S12307E02D747C7FC9B67FC981062E6AB67F1CBE7FC7A7843001BF7FC720E07D7FC927567B
S1230800BE7F1D301FBF7F148E7FCABF7FE47F7FCABD0DB2BD0DA43404A1E02707BC7F1FED
S1230820273720F0BF7FC57C7FCAB67FCAB17FC92719BD0DB2BD0DA43404A1E027E9BE7F56
S1230840C5BC7F1F2713BF7F1420BD8E7FC5BD0CE2BD0CCD20E87E04597E0472BD0BD82F53
S1230860F5BE7F1DBF7FC5A68434026F846D8427058E104D20206A8486FFA18427058E1025
S1230880592013BE7FC53502A784BC7F1F27CA3001BF7FC520D1BF7FC98E7FC5BD0CE2BDB3
S12308A00CD3BE7FC5BD0CD9BD0CCDBE7FC9BD0F5EBD0FE520CDBD0C18BF7F00204CBD0CF9
S12308C018BF7F042044BD0C18BF7F08203CBD0C18BF7F0A2034BD0C18BF7F0C202CBD0C16
S12308E018BF7F022024BD0C18BF7F06201CBD0C18BF7F1DBD0C18BF7F1BBD0BB28E106BFE
S12309008D0BBD0BC58E10738D037E0472BD0F5E8E7F1FBD0CE239BD0BD87F7FCD8602BD2F
S12309200A972715102F00808101270220EFBD0C18BF7F2F7C7FCD20E47D7FCD27037C7F55
S12309402E8D688E107EBD0F5EB67F20B07F1EF67F1FF27F1D260481102502860F8B04B7A9
S12309607FC98003B77FCB8E1091BD0F5E5F8E7FC98D398E7F1D8D348D32BE7F1D8D2D7A1B
S12309807FCB26F9BF7F1D5334041F418D1E3504BE7F1D301FBC7F1F26AF8E1096BD0F5E8A
S12309A08D097F7F2E7E04727E045939EB84BD0CD93001398607BD0A972BED2709BD0C18DA
S12309C0BF7F2C7C7F2BBD0F6F815326F9BD0F6F8139272F813126EE7F7FEEBD0A178002F8
S12309E0B77FED8D248D307A7FED2706A784300120F37C7FEE27CF8E103DBD0F5E8E7FC52A
S1230A00BD0CE27F7F2B7E04728D0CB77FC58D07B77FC6BE7FC5398D15484848481F898DB4
S1230A200D3404ABE01F89FB7FEEF77FEE39BD0F6F80302B0F81092F0A81112B0781162EC4
S1230A40038007398E10A5BD0F5E39BD0C188D037E0472B67FEB4A26FD301F26F639BD0FC7
S1230A60E58E0DBDC604F77FC5C60CA680810D2706BD0F8D5A26F4A684810A27147A7FC502
S1230A802605BD0FE520DD8620BD0F8D5A26F820D8BD0FE57E0472B77FE2BD0B4024024FD0
S1230AA039BE7F10B67FE2C60A8D7CBF7FE47F7FE37C7FE3BE7F12BF7F147F7FE1BD0DA4ED
S1230AC0BD0B6D2616BD0DB2810A2719810D27153404A1E0261B7C7FE120E2B67FE3BE7F63
S1230AE014BF7F12397D7FE12707BD0B6D26ECA684810A2709810D27B8BD0DB220F34F4A89
S1230B0039BF7FDB34048E0DBCC60A8D1AB67FE3C60D8D133001A684810D2705BD0F8D2060
S1230B20F3BE7FDB350439B77FC7F77FC85F5CF17FC7270B3001A684B17FC827F120F5391C
S1230B401CFE7D7F162E0CBE7F12A6848D1426031A0139E6018D16260139BD0DA4BF7F12EC
S1230B6020E5810D2706810A2702813B3934041F988DEF35042735B67F1781012606C1202D
S1230B80262D202881022606C12C2623201E81032606C120271620F081042615C1302D0CCB
S1230BA0C1392F0BC1412D04C15A2F038601394F393FB67F1EBB7F1CB77F20B67F1DB97F6D
S1230BC01BB77F1F39B67F1EB07F1CB77F20B67F1DB27F1BB77F1F398D492E032D0939BE14
S1230BE07F1BBF7F1D200DBE7F14A684813A260C8D1A2F0EBE7F1BBF7F1F200D81212703D5
S1230C004F4A398D072FFB8DA9860139BF7F12BE7F1BBF7F1D8D0C398D092E037E0459BE15
S1230C207F1B39BF7FDF7F7F1B7F7F1CBE7F12BF7F14BD0B402405BE7FDF4F39BD0DA4BDEC
S1230C400B6D2665C0302B6DB67F18810127088102271E81032741C1092F0AC1112B56C13C
S1230C60162E52C0078D548D52FA7F1CF77F1C20CBC1092E408D49BE7F1BBF7FE98D3C4F9C
S1230C80FB7FEAB97FE9252DFB7F1CB97F1B2525F77F1CB77F1B20A4C1072E198D1D8D2039
S1230CA0FA7F1CF77F1C7E0C3CBE7F14BF7F12BE7FDF860139BE7FDF4F4A398D038D013981
S1230CC0787F1C797F1B250139326220E88620BD0F8D39863DBD0F8D393404C6018D0C3595
S1230CE004393404C6028D03350439BF7FDD3402AE84BF7FE7B67F198101270C8102271E3E
S1230D00810327618104277B58BD0D97BD0D97840F81092F028B078D785A26ED20375A2758
S1230D200B8E0D5BB67FE7F67FE820078E0D5F4FF67FE77F7FE6E001A28425057C7FE62053
S1230D40F5EB01A9843402B67FE68D45350230028C0D6526DE3502BE7FDD39271003E80047
S1230D6064000A0001584FC1022E068D2A8D2220058D298D1C5C8D1F8D2284078D135A2616
S1230D80F520D25858588D1484018D055A26F720C48B30BD0F8D398D038D0139787FE87951
S1230DA07FE74939BE7F143001E684BF7F147F7F1639BE7FE43001A684BF7FE43952454707
S1230DC00D474F544F0D5345490D434C490D434F50590D425245414B0D49424153450D447A
S1230DE0424153450D434F4E54494E55450D444953504C41590D5345540D56455249465964
S1230E000D5345415243480D544553540D494E540D4E4D490D5357490D434F4D50415245C1
S1230E200D44554D500D4C4F41440D44454C41590D48454C500D434C460D5345460D464923
S1230E4052510D52535256440D535749320D535749330D0A544F0D0A4845580D4445430D4C
S1230E604F43540D42494E0D0A3F0D0A2E43430D2E410D2E420D2E44500D2E580D2E590D85
S1230E802E550D2E50430D2E530D0A444154410D555345440D0A46524F4D0D0ABE7F345FCE
S1230EA0BC7F3626098E1022BD0F5EC60339BD0F6F847F811A2604BD0FE539810D2704817B
S1230EC00A260D3001A7847D7F312603BD0FE539810326081F89865EBD0F8D39810827298C
S1230EE081602306817A220280203001A784C10827041F8920091F89865CBD0F8D1F987DED
S1230F007F312603BD0F8D2097BC7F342792C10827071F89865CBD0F8DA684301F20E01A4F
S1230F20108601B77F18B77F198610B77F1A8648B77F337F7F2B7F7F2E7F7F318603B7A0F8
S1230F4000B7A0008615B7A000B7A0008E052ABF7F088E0DBCBF7F108600B77FEB3934022F
S1230F60A684810427068D25300120F4350239BF7FDB7D7F2B26058EA0012003BE7F2C30D4
S1230F801FA684850127FAA601BE7FDB3934047D7F2E2724BF7FDBBE7F2FC602F17F2E27A6
S1230FA00A301FE58427FCA7012007A7843001BF7F2FBE7FDB350439810A2603350439817F
S1230FC00D26058D20350439F67F32F17F332C0BCB0AF17F332D06812026028D087C7F32FF
S1230FE08D1735043934023404860D8D0C860A8D087F7F32350435023934028602B5A0002C
S123100027FB3502B7A001394D4F4E444542203638303920312E30300D042A040D53574918
S12310203A04544F4F204C4F4E47044E4F542053455404534554204020044F4B0443484549
S1231040434B53554D204552524F52200443414E275420434C4541520443414E27542053A3
S1231060455420544F204F4E45530453554D20495320042C204449464620495320040D0A86
S123108053303036303030303438343435323142040D0A5331040D0A53393033303030308C
S12310A046430D0A0443484152204E4F54204845580D046E9F7F006E9F7F026E9F7F046E2B
S12310C09F7F067E040010FF7F0E6E9F7F0810FF7F0E6E9F7F0A10FF7F0E6E9F7F0C7E0A48
S12310E0537E07BA7E0DA47E0DB27E0BD87E0C237E0B407E0B6D7E0B627E0A977E0B017E0F
S12311000CD97E0CE27E0E9C7E0F5E7E0FE57E0F8D7E0FF97E0F6F7E04277E040010BF104F
S1101120D610CE10B710B310C610BB10C30C
S9030000FC
