S123F00010CE7FB910FF7F0EBDFB14BDFBD88EFBFBBDFB518E7F37BF7F348E7F80BF7F369A
S123F0208603B77F17200FBDFBD87C7F16BE7F12A684813B271A8EFC19BDFB51BDFA8FC1FD
S123F0400327E4BE7F34BF7F12A601BDF75527D78601BDF68A27D02E20BE7F34BC7F14273F
S123F06007BDF8C0300120F4865EBDFB80BDFBD820C4BDF73325B020E01F89483404ABE0CC
S123F080C6F08B91C900340234041F41AE84350435026E847EF0E87EF13B7EF14D7EF155EF
S123F0A07EF15D7EF18B7EF1EB7EF2027EF23B7EF2407EF2AC7EF3767EF3BE7EF44F7EF4FA
S123F0C0A97EF4B17EF4B97EF4E17EF50A7EF5A77EF63E7EF6517EF1597EF1517EF4D17E8B
S123F0E0F4D97EF4C17EF4C9BE7F0E7F7FE38D198D178D158D138D198D178D158D138D19E7
S123F1008E7F0EBDF8D57EF0728D0EBDF8CC3001398D06BDF8D5300239BDF8C07C7FE3867F
S123F12005BDF6F4BDF8C6398EFC1BBDFB51BE7F0E6D0C26026A0B6A0C20ADBDF81627081F
S123F140BE7F1BBF7F216E84BE7F216E841A1020371A4020331CEF202F1CEF202BBDF7CB55
S123F1602F23BDF8162F1EBE7F1DA684BE7F1BA7843001BF7F1BBE7F1DBC7F1F270A30017A
S123F180BF7F1D20E57EF0597EF072BDF8162B31271FBE7F28A684813F2605B67F2AA784F3
S123F1A0BE7F1BBF7F28A684B77F2A863FA7842034BE7F28A684813F262BB67F2AA7842075
S123F1C0248604BDF68A2F20BE7F28A684813F27088EFC2ABDFB51200C8EFC32BDFB518E37
S123F1E07F28BDF8D57EF0727EF0598603BDF68A2B092E028601B77F1820EAB67F183402A7
S123F20020268603BDF68A2B1A2E028601B77F198EF21E30014A26FBA684B77F1A20C610E9
S123F2200A0802B67F1934028604BDF68A35042FB78603F77FE3BDF6F420AA10FE7F0E3B23
S123F240BDF7CB2F61BE7F1DBF7FC58606BDF68A2B544AB77FE35F5C8E7FC57D7FE32B2CD0
S123F2605A260CBDFBD8BDF8D5BDF8C0F67F1ABE7FC57D7FE32E05BDF8C0201BA6844D267F
S123F28004862E2002862BBDFB80200EBDF8C0BDF8D5BDF8C6AE84BDF8CCBC7F1F270A3091
S123F2A001BF7FC520B27EF0597EF072BDF7CB2B5227F3BE7F1DBC7F1F2713BDF8162FE6E9
S123F2C0B67F1CA784BC7F1F27DF300120F5BF7FC5BDF816270E2DCEB67F1CBE7FC5A7848C
S123F2E0300120EABE7F12A684810A102600848E7FC5BDF8D5BDF8C0BDFA8FBE7F34BF7F4B
S123F3001220CE8605BDF68A2B6627673402BDF81635022F5BBE7F0EF67F1C81012604E7D1
S123F3208420E081022604E70120D881032604E70220D081042604E70320C881052607B647
S123F3407F1BED0420BD81062607B67F1BED0620B281072607B67F1BED0820A78108260701
S123F360B67F1BED0A209C81092605FD7F0E20937EF0597EF072BDF7CB271B2BF3BE7F1DB4
S123F380BF7F23BE7F1FBF7F258D22B77F278E7F27BDF8CC20DD8D15B17F2726088EFC39A1
S123F3A0BDFB5120CE8EFC3CBDFB5120C64FBE7F23301F3001AB84BC7F2526F74339BDF792
S123F3C0CB102F00848E7FCBBF7FC77F7FC9BDF816271B2D747C7FC9B67FC981062E6AB6B2
S123F3E07F1CBE7FC7A7843001BF7FC720E07D7FC92756BE7F1D301FBF7F148E7FCABF7FB7
S123F400E47F7FCABDF9A5BDF9973404A1E02707BC7F1F273720F0BF7FC57C7FCAB67FCA1E
S123F420B17FC92719BDF9A5BDF9973404A1E027E9BE7FC5BC7F1F2713BF7F1420BD8E7F4C
S123F440C5BDF8D5BDF8C020E87EF0597EF072BDF7CB2FF5BE7F1DBF7FC5A68434026F84E2
S123F4606D8427058EFC4C20206A8486FFA18427058EFC582013BE7FC53502A784BC7F1FBE
S123F48027CA3001BF7FC520D1BF7FC98E7FC5BDF8D5BDF8C6BE7FC5BDF8CCBDF8C0BE7F3F
S123F4A0C9BDFB51BDFBD820CDBDF80BBF7F00204CBDF80BBF7F042044BDF80BBF7F082003
S123F4C03CBDF80BBF7F0A2034BDF80BBF7F0C202CBDF80BBF7F022024BDF80BBF7F0620D2
S123F4E01CBDF80BBF7F1DBDF80BBF7F1BBDF7A58EFC6A8D0BBDF7B88EFC728D037EF072FB
S123F500BDFB518E7F1FBDF8D539BDF7CB7F7FCD8602BDF68A2715102F008081012702201A
S123F520EFBDF80BBF7F2F7C7FCD20E47D7FCD27037C7F2E8D688EFC7DBDFB51B67F20B0B9
S123F5407F1EF67F1FF27F1D260481102502860F8B04B77FC98003B77FCB8EFC90BDFB513C
S123F5605F8E7FC98D398E7F1D8D348D32BE7F1D8D2D7A7FCB26F9BF7F1D5334041F418D18
S123F5801E3504BE7F1D301FBC7F1F26AF8EFC95BDFB518D097F7F2E7EF0727EF05939EB83
S123F5A084BDF8CC3001398607BDF68A2BED2709BDF80BBF7F2C7C7F2BBDFB62815326F969
S123F5C0BDFB628139272F813126EE7F7FEEBDF60A8002B77FED8D248D307A7FED2706A7C1
S123F5E084300120F37C7FEE27CF8EFC3CBDFB518E7FC5BDF8D57F7F2B7EF0728D0CB77F5D
S123F600C58D07B77FC6BE7FC5398D15484848481F898D0D3404ABE01F89FB7FEEF77FEE1B
S123F62039BDFB6280302B0F81092F0A81112B0781162E038007398EFCA4BDFB5139BDF855
S123F6400B8D037EF072B67FEB4A26FD301F26F639BDFBD88EF9B0C604F77FC5C60CA68036
S123F660810D2706BDFB805A26F4A684810A27147A7FC52605BDFBD820DD8620BDFB805A81
S123F68026F820D8BDFBD87EF072B77FE2BDF73324024F39BE7F10B67FE2C60A8D7CBF7FB8
S123F6A0E47F7FE37C7FE3BE7F12BF7F147F7FE1BDF997BDF7602616BDF9A5810A271981DF
S123F6C00D27153404A1E0261B7C7FE120E2B67FE3BE7F14BF7F12397D7FE12707BDF760F4
S123F6E026ECA684810A2709810D27B8BDF9A520F34F4A39BF7FDB34048EF9AFC60A8D1A64
S123F700B67FE3C60D8D133001A684810D2705BDFB8020F3BE7FDB350439B77FC7F77FC835
S123F7205F5CF17FC7270B3001A684B17FC827F120F5391CFE7D7F162E0CBE7F12A6848D7C
S123F7401426031A0139E6018D16260139BDF997BF7F1220E5810D2706810A2702813B3924
S123F76034041F988DEF35042735B67F1781012606C120262D202881022606C12C2623200A
S123F7801E81032606C120271620F081042615C1302D0CC1392F0BC1412D04C15A2F038645
S123F7A001394F393FB67F1EBB7F1CB77F20B67F1DB97F1BB77F1F39B67F1EB07F1CB77F3E
S123F7C020B67F1DB27F1BB77F1F398D492E032D0939BE7F1BBF7F1D200DBE7F14A6848187
S123F7E03A260C8D1A2F0EBE7F1BBF7F1F200D812127034F4A398D072FFB8DA9860139BFC2
S123F8007F12BE7F1BBF7F1D8D0C398D092E037EF059BE7F1B39BF7FDF7F7F1B7F7F1CBEA1
S123F8207F12BF7F14BDF7332405BE7FDF4F39BDF997BDF7602665C0302B6DB67F188101EA
S123F84027088102271E81032741C1092F0AC1112B56C1162E52C0078D548D52FA7F1CF701
S123F8607F1C20CBC1092E408D49BE7F1BBF7FE98D3C4FFB7FEAB97FE9252DFB7F1CB97FB4
S123F8801B2525F77F1CB77F1B20A4C1072E198D1D8D20FA7F1CF77F1C7EF82FBE7F14BF16
S123F8A07F12BE7FDF860139BE7FDF4F4A398D038D0139787F1C797F1B250139326220E871
S123F8C08620BDFB8039863DBDFB80393404C6018D0C3504393404C6028D03350439BF7F8F
S123F8E0DD3402AE84BF7FE7B67F198101270C8102271E810327618104277B58BDF98ABD47
S123F900F98A840F81092F028B078D785A26ED20375A270B8EF94EB67FE7F67FE820078E28
S123F920F9524FF67FE77F7FE6E001A28425057C7FE620F5EB01A9843402B67FE68D453551
S123F9400230028CF95826DE3502BE7FDD39271003E80064000A0001584FC1022E068D2A1E
S123F9608D2220058D298D1C5C8D1F8D2284078D135A26F520D25858588D1484018D055AED
S123F98026F720C48B30BDFB80398D038D0139787FE8797FE74939BE7F143001E684BF7F75
S123F9A0147F7F1639BE7FE43001A684BF7FE4395245470D474F544F0D5345490D434C4914
S123F9C00D434F50590D425245414B0D49424153450D44424153450D434F4E54494E55451A
S123F9E00D444953504C41590D5345540D5645524946590D5345415243480D544553540DE8
S123FA00494E540D4E4D490D5357490D434F4D504152450D44554D500D4C4F41440D4445EC
S123FA204C41590D48454C500D434C460D5345460D464952510D52535256440D53574932CA
S123FA400D535749330D0A544F0D0A4845580D4445430D4F43540D42494E0D0A3F0D0A2E6C
S123FA6043430D2E410D2E420D2E44500D2E580D2E590D2E550D2E50430D2E530D0A444185
S123FA8054410D555345440D0A46524F4D0D0ABE7F345FBC7F3626098EFC21BDFB51C60340
S123FAA039BDFB62847F811A2604BDFBD839810D2704810A260D3001A7847D7F312603BD78
S123FAC0FBD839810326081F89865EBDFB80398108272981602306817A220280203001A7ED
S123FAE084C10827041F8920091F89865CBDFB801F987D7F312603BDFB802097BC7F342765
S123FB0092C10827071F89865CBDFB80A684301F20E01A108601B77F18B77F198610B77F03
S123FB201A8648B77F337F7F2B7F7F2E7F7F318603B7A000B7A0008615B7A000B7A0008EDE
S123FB40F128BF7F088EF9AFBF7F108600B77FEB393402A684810427068D25300120F435A0
S123FB600239BF7FDB7D7F2B26058EA0012003BE7F2C301FA684850127FAA601BE7FDB3908
S123FB8034047D7F2E2724BF7FDBBE7F2FC602F17F2E270A301FE58427FCA7012007A784C3
S123FBA03001BF7F2FBE7FDB350439810A2603350439810D26058D20350439F67F32F17F04
S123FBC0332C0BCB0AF17F332D06812026028D087C7F328D1735043934023404860D8D0CD1
S123FBE0860A8D087F7F32350435023934028602B5A00027FB3502B7A001394D4F4E444593
S123FC0042203638303920312E30302030392D4D61722D323031390D042A040D5357493A80
S123FC2004544F4F204C4F4E47044E4F542053455404534554204020044F4B044348454354
S123FC404B53554D204552524F52200443414E275420434C4541520443414E2754205345B5
S123FC605420544F204F4E45530453554D20495320042C204449464620495320040D0A538C
S123FC80303036303030303438343435323142040D0A5331040D0A533930333030303046AD
S123FCA0430D0A0443484152204E4F54204845580D046E9F7F006E9F7F026E9F7F046E9FE6
S123FCC07F067EF00010FF7F0E6E9F7F0810FF7F0E6E9F7F0A10FF7F0E6E9F7F0CFFFFFF9A
S123FCE0FFFFFFFFFFFFFFFFFFFFFFFFFFFFFFFFFFFFFFFFFFFFFFFFFFFFFFFFFFFFFFFF20
S123FD00FFFFFFFFFFFFFFFFFFFFFFFFFFFFFFFFFFFFFFFFFFFFFFFFFFFFFFFFFFFFFFFFFF
S123FD20FFFFFFFFFFFFFFFFFFFFFFFFFFFFFFFFFFFFFFFFFFFFFFFFFFFFFFFFFFFFFFFFDF
S123FD40FFFFFFFFFFFFFFFFFFFFFFFFFFFFFFFFFFFFFFFFFFFFFFFFFFFFFFFFFFFFFFFFBF
S123FD60FFFFFFFFFFFFFFFFFFFFFFFFFFFFFFFFFFFFFFFFFFFFFFFFFFFFFFFFFFFFFFFF9F
S123FD80FFFFFFFFFFFFFFFFFFFFFFFFFFFFFFFFFFFFFFFFFFFFFFFFFFFFFFFFFFFFFFFF7F
S123FDA0FFFFFFFFFFFFFFFFFFFFFFFFFFFFFFFFFFFFFFFFFFFFFFFFFFFFFFFFFFFFFFFF5F
S123FDC0FFFFFFFFFFFFFFFFFFFFFFFFFFFFFFFFFFFFFFFFFFFFFFFFFFFFFFFFFFFFFFFF3F
S123FDE0FFFFFFFFFFFFFFFFFFFFFFFFFFFFFFFFFFFFFFFFFFFFFFFFFFFFFFFFFFFFFFFF1F
S123FE00FFFFFFFFFFFFFFFFFFFFFFFFFFFFFFFFFFFFFFFFFFFFFFFFFFFFFFFFFFFFFFFFFE
S123FE20FFFFFFFFFFFFFFFFFFFFFFFFFFFFFFFFFFFFFFFFFFFFFFFFFFFFFFFFFFFFFFFFDE
S123FE40FFFFFFFFFFFFFFFFFFFFFFFFFFFFFFFFFFFFFFFFFFFFFFFFFFFFFFFFFFFFFFFFBE
S123FE60FFFFFFFFFFFFFFFFFFFFFFFFFFFFFFFFFFFFFFFFFFFFFFFFFFFFFFFFFFFFFFFF9E
S123FE80FFFFFFFFFFFFFFFFFFFFFFFFFFFFFFFFFFFFFFFFFFFFFFFFFFFFFFFFFFFFFFFF7E
S123FEA0FFFFFFFFFFFFFFFFFFFFFFFFFFFFFFFFFFFFFFFFFFFFFFFFFFFFFFFFFFFFFFFF5E
S123FEC0FFFFFFFFFFFFFFFFFFFFFFFFFFFFFFFFFFFFFFFFFFFFFFFFFFFFFFFFFFFFFFFF3E
S123FEE0FFFFFFFFFFFFFFFFFFFFFFFFFFFFFFFFFFFFFFFFFFFFFFFFFFFFFFFFFFFFFFFF1E
S123FF00FFFFFFFFFFFFFFFFFFFFFFFFFFFFFFFFFFFFFFFFFFFFFFFFFFFFFFFFFFFFFFFFFD
S123FF20FFFFFFFFFFFFFFFFFFFFFFFFFFFFFFFFFFFFFFFFFFFFFFFFFFFFFFFFFFFFFFFFDD
S123FF40FFFFFFFFFFFFFFFFFFFFFFFFFFFFFFFFFFFFFFFFFFFFFFFFFFFFFFFFFFFFFFFFBD
S123FF60FFFFFFFFFFFFFFFFFFFFFFFFFFFFFFFFFFFFFFFFFFFFFFFFFFFFFFFFFFFFFFFF9D
S123FF80FFFFFFFFFFFFFFFFFFFFFFFFFFFFFFFFFFFFFFFFFFFFFFFFFFFFFFFFFFFFFFFF7D
S114FFA0FFFFFFFFFFFFFFFFFFFFFFFFFFFFFFFFFF5D
S123FFB17EF6467EF3AD7EF9977EF9A57EF7CB7EF8167EF7337EF7607EF7557EF68A7EF6A5
S123FFD1F47EF8CC7EF8D57EFA8F7EFB517EFBD87EFB807EFBEC7EFB627EF0277EF000FC31
S112FFF1BEFCD5FCCDFCB6FCB2FCC5FCBAFCC210
S9030000FC
