:20C00000173E59FD5FF08618340217009735024A26F6308D0B8C1700848D638D11812027C2
:20C02000E581512708817127048D7220EC393402860D8D47860A8D43350239340286248DDF
:20C040003A3502393402862C8D313502393402865B8D283502393402865D8D1F3502393F70
:20C060000739340286208D138D113502393402810027058DEA4A20F73502393F01393F0013
:20C08000393416B75FF7308D9F6D3F043516393416BF5FF7308D9F5F3F0535163934103F1B
:20C0A000023510397F5FFCAE8D9F45E684C1102707C11127531600A18601B75FFCE601F724
:20C0C0005FF2308D0A434FE186271F8B036D86270220F48610B75FF28600B75FF48600B7E0
:20C0E0005FF38601B75FF61600918B01E686F75FF48B01E686F75FF34F1F01E689C8DCF7B8
:20C100005FF67C5FF61600738601B75FFCE601F75FF2308D0A664FE186271F8B036D8627D7
:20C120000220F48611B75FF28600B75FF48600B75FF38601B75FF61600418B01E686F75FF3
:20C14000F48B01E686F75FF34F1F01E689C8DCF75FF67C5FF616002339F75FF24F1F01E6FC
:20C1600089C909F75FF4F65FF21F01E689CA09F75FF31F01E689C8DCF75FF6B65FF3810818
:20C180002622AE8D9E6A7D5FFC2704A6022002A601B75FF52A0E841F308D074DA686BB5F63
:20C1A000F6B75FF6AE8D9E4817FEE417FEB1F65FF6AE8D9E3BA68017FEC75A26F8308D0700
:20C1C00024B65FF64AA68617FEA37D5FFC2709FC5FF0C30001FD5FF0F65FF44F58495849C5
:20C1E000308D04E4B75FF9A68B17FE8FB65FF95CA68B17FE86B65FF95CA68B17FE7DB65F3E
:20C20000F95CA68B17FE74B65FF38100272E81012739810227388103102701AF8104102746
:20C2200001C48105102701D08106102701E08107102701F58108102702092000860F17FEC2
:20C240002C308D095317FE55160467160464B65FF4818127338137272F8166102700AD8171
:20C2600067102700A78164102700A181651027009B17FDEE862317FE0217FDBFAE8D9D7027
:20C28000A60117FDFC16042A17FDD7AE8D9D61A60184F0444444448D0E862C17FDDDA6016F
:20C2A000840F8D0316040B81002604864420508101260486582048810226048659204081F2
:20C2C000032604865520388104260486532030810526068650C643202A81082604864120B1
:20C2E0001E8109260486422016810A26068643C6432010810B26068644C6502006863F171B
:20C30000FD793917FD751F9817FD703917FD538601B75FFBAE8D9CD8A6018580270D3406A9
:20C320008650C6438DDD7F5FFB3506854027213402B65FF4816627128164270E17008186FC
:20C34000538DBC7F5FFB350220068D74865520F18520270D34028D6886598DA37F5FFB35FD
:20C36000028510270D34028D5786588D927F5FFB35028508270F34068D468644C6508D830B
:20C380007F5FFB35068504270E34028D33864217FF6D7F5FFB35028502270E34028D218654
:20C3A0004117FF5B7F5FFB35028501271034068D0F8643C64317FF4B7F5FFB35061602F2D7
:20C3C0007D5FFB2605862C17FCB13917FC94862317FCA817FC65AE8D9C16A601E6021F018D
:20C3E00017FCAC1602CC17FC7917FC4FAE8D9C00A60117FC8C1602BA17FC6717FC3DAE8DB8
:20C400009BEEA601E6021F0117FC841602A417FC5117FC27AE8D9BD8E6011DF35FF0C3003C
:20C42000021F0117FC6916028917FC3617FC0CAE8D9BBDEC01F35FF0C300031F0117FC4F4B
:20C4400016026F17FC1CB65FF52B14841F17FBEB17FC2E17FBEEB65FF517023516025384B5
:20C460009F8184260C17FBDCB65FF517022316024181882618AE8D9B77A60217FBBD17FC3B
:20C480000017FBC0B65FF51702071602258189261AAE8D9B5BEC021F0117FB9F17FBF01710
:20C4A000FBA2B65FF51701E916020781862611864117FBC717FB8DB65FF51701D41601F239
:20C4C00081852607864217FBB220E9818B2607864417FBA720DE8180261117FB67B65FF51F
:20C4E0001701AE862B17FB931601C78181261417FB52B65FF5170199862B17FB7E17FB7B19
:20C500001601AF8182261117FB3A862D17FB6CB65FF517017C16019A8183261417FB258654
:20C520002D17FB5717FB54B65FF5170164160182818C2615AE8D9AB8A60217FAFE17FB4101
:20C5400017FB01170164160169818D2617AE8D9A9FEC021F0117FAE317FB3417FAE61701B6
:20C560004916014E8194261217FAE217FAD6B65FF517011D17FADF1601388198261E17FAFA
:20C58000CCAE8D9A6BA60217FAB117FAF417FAB4B65FF51700FB17FABD16011681992620E4
:20C5A00017FAAAAE8D9A49EC021F0117FA8D17FADE17FA90B65FF51700D717FA991600F2BC
:20C5C0008196261717FA86864117FAAF17FA75B65FF51700BC17FA7E1600D78195260A17AD
:20C5E000FA6B864217FA9420E3819B260A17FA5D864417FA8620D58191261A17FA4F17FA93
:20C6000043B65FF517008A862B17FA6F17FA6C17FA4416009D8193261A17FA3117FA258624
:20C620002D17FA5717FA54B65FF517006417FA2616007F819C261B17FA13AE8D99B2A602FF
:20C6400017F9F817FA3B17F9FB17005E17FA07160060819D261D17F9F4AE8D9993EC021F9F
:20C660000117F9D717FA2817F9DA17003D17F9E616003F819F261717F9D3AE8D9972EC029C
:20C680001F0117F9B617FA0717F9CB160024160021340284604444444444308D0008A686F1
:20C6A00017F9D835023958595553308D051C17F9EC3917F9797D5FFC27037A5FF64FF65FB8
:20C6C000F6F35FF0FD5FF0393F3F3F2041425820414443414144434241444441414444429D
:20C6E00041444444414E4441414E4442414E444341534C2041534C4141534C4241535220A5
:20C70000415352414153524242434320424353204245512042474520424754204248492014
:20C720004249544142495442424C4520424C5320424C5420424D4920424E452042504C20D7
:20C740004252412042524E20425352204256432042565320434C5220434C5241434C52428F
:20C76000434D5041434D5042434D5044434D5053434D5055434D5058434D5059434F4D4159
:20C78000434F4D42434F4D204357414944414120444543204445434144454342454F524141
:20C7A000454F524245584720494E4320494E4341494E43424A4D50204A5352204C424343F2
:20C7C0004C4243534C4245514C4247454C4247544C4248494C424C454C424C534C424C5435
:20C7E0004C424D494C424E454C42504C4C4252414C42524E4C4253524C4256434C425653EA
:20C800004C4441204C4442204C4444204C4453204C4455204C4458204C4459204C45415303
:20C820004C4541554C4541584C4541594C5352204C5352414C5352424D554C204E454720FE
:20C840004E4547414E4547424E4F50204F5241204F5242204F5243435053485350534855EA
:20C8600050554C5350554C55524F4C20524F4C41524F4C42524F5220524F5241524F524248
:20C88000525449205254532053424341534243425345582053544120535442205354442011
:20C8A00053545320535455205354582053545920535542415355424253554244535749206B
:20C8C000535749325357493353594E43544652205453542054535441545354420101020329
:20C8E00002030203020A070401000000000000000001020000010200000000000000000010
:20C900000001020000010200025D00002E59006B0D0A68320038823B2300006080000049CE
:20C920004B00316300097237811E1F151910111C1221221D1B131A141857585556646665CE
:20C9400067006F016E305C007D5E00002D5A006C0E0B693300398300245F00002E5B006D4E
:20C960000F0C6A34003A8400255D00002F59006B0D0A68320038823B235D00002F59006BB2
:20C980000D0A68320038823B237A26707C07164E00350261042B2053007A26707C07164EA6
:20C9A00073350261042B3C53787A26707C07164E73350261042B3C53787A26707C07164E07
:20C9C00073350261042B3C53787B27710608174F0036036205500052007B27710608174FC6
:20C9E0007436036205507552777B27710608174F7436036205507552777B27710608174FE5
:20CA000074360362055075527704000004040004040404040004040404000001010000073B
:20CA200007000102000201020206060606060606060606060606060606080808080202025F
:20CA40000200010101020100010100000101000101010101000101000101000001010001BE
:20CA600001010101000101000108000008080008080808080008080808050000050500053B
:20CA800005050505000505050502020203020202000202020203060300040404040404042F
:20CAA0000404040404040404040808080808080808080808080808080805050505050505AF
:20CAC0000505050505050505050202020302020200020202020201020004040404040404F1
:20CAE00004040404040404040408080808080808080808080808080808050505050505056F
:20CB0000050505050505050505214A07224207234407243D07253E07264707273F07284C76
:20CB200007294D072A48072B46072C40072D45072E41072F43073F7E018328038C2C038EF0
:20CB400054039328049C2C049E54049D7904A32808AC2C08AE5408AF7908B32805BC2C0529
:20CB6000BE5405BF7905CE5103DE5104DD7604EE5108EF7608FE5105FF7605003F7F0183F1
:20CB80002A038C2903932A049C2904A32A08AC2908B32A05BC2905003B20494E56414C498A
:20CBA00044045052455353203C53504143453E20544F20434F4E54494E55452C203C513E3B
:20CBC00020544F2051554954200450435204FFFFFFFFFFFFFFFFFFFFFFFFFFFFFFFFFFFF34
:20CBE000FFFFFFFFFFFFFFFFFFFFFFFFFFFFFFFFFFFFFFFFFFFFFFFFFFFFFFFFFFFFFFFF55
:20CC0000FFFFFFFFFFFFFFFFFFFFFFFFFFFFFFFFFFFFFFFFFFFFFFFFFFFFFFFFFFFFFFFF34
:20CC2000FFFFFFFFFFFFFFFFFFFFFFFFFFFFFFFFFFFFFFFFFFFFFFFFFFFFFFFFFFFFFFFF14
:20CC4000FFFFFFFFFFFFFFFFFFFFFFFFFFFFFFFFFFFFFFFFFFFFFFFFFFFFFFFFFFFFFFFFF4
:20D000007ED0498D0327FC39B6A00085012706B6A001847F394F398D243402810D270BB70B
:20D02000A0010C799679917825100F798D0F860DB7A0018D08860AB7A0013502393402B695
:20D04000A000850227F935023910CE01EE966E8155260A9E6FA684811226026E848E0218B6
:20D060006F83300126FA8E02176F809F19A60243A702A10226063001630120F19F719F2740
:20D080009F233089FF389F211F148ED0D1CE0076C612BDD1B1CE00A7C604BDD1B18639978D
:20D0A000F0BDD4BD8E00B59F8DCEDBD1C60AEF815A26FB8615B7A0008ED106BDE0E88ED054
:20D0C000C99F6F8655976E200412BDD4D77ED4253B10405000DBD10C8426020C83B6000000
:20D0E0007ED1C27ED1C17ED0D07EDBD1804FC7525932D220D32D1DD2C0D1D1000000000011
:20D10000000000000000003638303920455854454E4445442042415349430D284329203153
:20D12000393832204259204D4943524F534F46540D0D0034169E76DC789F6AD76C976D356A
:20D14000960F738E00F4C601BDD003810826075A27EF301F20348115260A5A27E48608BD9F
:20D16000D01720F681031A012705810D260D4F3401BDE0A86F848E00F33581812025C98123
:20D180007B24C5C1FA24C1A7805CBDD01720B92705BDDEC49F7A6E9F007A7ED5A696732638
:20D1A00003BDD0080F73975310260C6A97567EDE22A680A7C05A26F939399D8227FB7EDA43
:20D1C000033B813A240A812026020E7C803080D039E3C6E43AE3DF00ADE66BE6C0DED7DEDC
:20D1E00008DC84DE9DDE27DE13E770E738E741E8B2E8E4E806EA6CE840EF3EDE32DE4FDE9E
:20D2000056D19DDC75EA74EB34EB0479E11179E1087BE2187BE2DD7FE84950DA5C46DA5B60
:20D22000464FD247CF5245CDA7454C53C549C6444154C15052494ED44FCE494E5055D44595
:20D240004EC44E4558D44449CD524541C45255CE524553544F52C55245545552CE53544F98
:20D26000D0504F4BC5434F4ED44C4953D4434C4541D24E45D7455845C354524FCE54524F11
:20D2800046C64445CC4445C64C494EC552454E55CD454449D4544142A854CF5355C25448E1
:20D2A00045CE4E4FD4535445D04F46C6ABADAAAFDE414EC44FD2BEBDBC46CE5553494EC77F
:20D2C0005347CE494ED44142D35553D2524EC45349CE504545CB4C45CE535452A45641CCD9
:20D2E0004153C3434852A44154CE434FD35441CE4558D04649D84C4FC7504FD35351D248C5
:20D300004558A44C454654A45249474854A44D4944A4494E4B4559A44D45CD56415250544D
:20D32000D2494E5354D2535452494E47A4D4EBD636D693D693D693D6C4D690E06DD6F2D79E
:20D340009FD5BDD884DAD5D7D9D62BD59FD670D5C1DEDED5E6DEE5D5F7D4BBD18FEA67EA60
:20D3600068ECE3EC27F3D1ED6DE8F34E46534E52474F4446434F564F4D554C425344442F52
:20D38000304944544D4F534C535354434E4644414F444E494F464D4E4F4945445355464E34
:20D3A00045204552524F520020494E20000D4F4B0D000D425245414B003064C6129F0FA6C1
:20D3C0008480802615AE019F119E3B27099C1127099E0F3A20E59E119F3B9E0F4D398D17FD
:20D3E000DE4133419E433001A68236029C4726F8DF45394F58D31FC3003A250810DF1710F1
:20D40000931725EEC60CBDD4D7BDE0ACBDE0FB8ED36B3A8D318D2F8ED3A0BDE0E896684CE4
:20D420002703BDE511BDE0AC8ED3ADBDE0E8BDD141CEFFFFDF6825F69F839D7C27F0250BB4
:20D44000BDDF9A7ED574A6807EE0FDBDD7179E2B9FF1BDDF9AD7038D4C2512DC47A384D30D
:20D460001BDD1BEE843702A7809C1B26F896F3271CDC1BDD43DB038900DD41BDD3DECE004E
:20D48000EF3702A7809C4526F89E419F1B8D368D02209B9E19EC8427213304A6C026FCEF7B
:20D4A00084AE8420F0DC2B9E19EE84270910A3022306AE8420F31A019F473926FB9E196FA2
:20D4C000806F809F1B9E19BDD66B9E279F23BDD59F9E1B9F1D9F1F8E00C99F0BAEE410DE02
:20D4E000216FE20F2D0F2E0F086E8486809708BDD739BDD3B9326226049E0F3285C609BDCF
:20D50000D3F3BDD698DC683416C6A0BDD9FBBDD8CFBDD8CDD654CA7FD450D750108ED5237B
:20D520007ED9768EE211BDE3609D8281A426059D7CBDD8CDBDE3B9BDD972DC3B34068680FB
:20D5400034021CAF8D609E839F2FA6802707813A27227EDA03A68197002772EC80DD689F94
:20D5600083968C270F865BBDD0179668BDE518865DBDD0179D7C8D0220C827294D102A01A4
:20D58000B881FF270F819E22C9BED0F4481F893A9D7C6E949D7C8197102714F07EDA039EE7
:20D5A00019301F9F3339BDD008270A8103271281132703977339BDD00827FB20EE9D822070
:20D5C000021A0126319E839F2F060032629E688CFFFF27069F299E2F9F2D8ED3B10D001001
:20D5E0002AFE427ED41A260EC6209E2D1027FE169F839E299F6839272CBDDB6D34069E27A5
:20D600009D82270CBDD9F9BDDEC4301F9C7122181F10A3E125121F0383003A250B931B2568
:20D6200007DF219F277ED4CA7ED4049D821027FE94BDD4CA20191F899D7CC1A02716C1A16E
:20D640002645C603BDD3F3DE839E6886A134528D037ED5429D82BDD7178D403001DC2B10FB
:20D66000936822029E19BDD4A92517301F9F833926FD86FF973BBDD3B91F148121270BC624
:20D68000048CC60E7ED4067EDA0335529F68DF838D068C8D069F8339C63A865FD7015F9EBC
:20D6A000831F98D6019701A68427EC3404A1E027E63001812227EA4C26023001818626E720
:20D6C0000C0420E3BDD8CD9D8281812705C6A2BDD9FB964F26130F048DB64D27BA9D7C8153
:20D6E0008426F50A042AF19D7C9D821025FF657ED57ABDDE92C681BDD9FB340281A127043C
:20D7000081A026830A53260535047ED6389D7C8D06812C27EF35849E749F2B246180309722
:20D7200001DC2B811822DB58495849D32B5849DB018900DD2B9D7C20E2BDDADE9F3BC6AE1F
:20D74000BDD9FB96063402BDD8E2350246BDD8D410270C2B9E52DC2110A30224119C1B25E8
:20D760000DE684BDDC949E4DBDDDCA8E00569F4DBDDDFCDE4D9E3B3726A78410AF02393F8B
:20D780005245444F0D007ED406960927079E319F687EDA038ED77EBDE0E89E2F9F8339C6A6
:20D7A000169E68300127DF8D01398122260BBDD9D0C63BBDD9FBBDE0EB8E00F36F848D06F4
:20D7C000C62CE7842016BDE0FBBDE0F8BDD141240532647ED5C9C62E399E33864F97099FCD
:20D7E00035BDDADE9F3B9E839F2B9E35A684260996092651BDE0FB8DCD9F839D7CD6062748
:20D80000239E8397018122270E301F4F9701BDD133863A9701862C9702BDDCA5BDD9D5BD54
:20D82000D7542006BDE45EBDE37F9D822706812C1026FF529E839F359E2B9F839D822721B2
:20D84000BDD9F9209C9F83BDD69830014D260AC606EE812741EC81DD31A684818626E62007
:20D86000989E35D6091026FD3AA68427068ED8737EE0E8393F45585452412049474E4F52E0
:20D8800045440D0026049E742003BDDADE9F3BBDD3B92704C60020471F143003BDE360A697
:20D8A0006897549E3BBDE10EBDE37F3069BDE3E2E068270CAE6E9F68AEE8109F837ED5425B
:20D8C00032E8129D82812C26F49D7C8DBD8D131CFE7D1A010D0625032A998C2B96C6187EDA
:20D8E000D4068D6E4F8C34043402C601BDD3F3BDD9AF0F3F9D8280AD25138103240F810170
:20D9000049983F913F2564973F9D7C20E9D63F26331024006B8B0724679906102704778992
:20D92000FF340248ABE08ED20B30863502A18424558D9C34028D299E3D3502261D4D1027FB
:20D94000006A204B0806598D098ED957D73F0F0620D99E837ED66B64DA7BA184243120D30D
:20D96000EC0134068D08D63F16FF7B7EDA03D654A68435203404D64F9E50DE5234546EA42D
:20D980009E74A6E0272681642703BDD8CF9F3D3504815A2719817D271554D70A3552975C16
:20D9A0009F5DDF5F3504D761D854D762D64F39BDEBFC0F069D7C24037EE45EBDDB2924500B
:20D9C000812E27F481A7274081A627E38122260A9E83BDDC9F9E649F833981A3260D865AFD
:20D9E000BDD8E6BDDB7443537EDC7B4C272E8D06BDD8E2C6298CC6288CC62CE19F0083267A
:20DA0000020E7CC6027ED406867DBDD8E67EE635BDDADE9F52960626957EE3609D7C1F8904
:20DA2000589D7CC13823037EDA033404C12A251EC130241C8DC0A6E4BDD8E28DBCBDD8D266
:20DA40003502DE523442BDDE92350234068E8D9E3504BED0F93AAD947ED8CF864F9703BD06
:20DA6000DB74DD01BDE396BDDB740D0326069401D40220049A01DA027EDC7BBDD8D4261081
:20DA800096618A7F945D975D8E005CBDE3E220360F060A3FBDDDDED7569F589E5FBDDDE06E
:20DAA00096563404A0E0270786012403D656409754DE585C5A2604D654200BA680A1C02776
:20DAC000F3C6FF240150CB0159D40A2702C6FF7EE3C8BDD9F9C6018D089D8226F5395F9DA5
:20DAE00082D70597379D828D401025FF165FD7069D7C25048D33250A1F899D7C25FC8D29BF
:20DB000024F8812426060306CB809D7CD7389A088028102700750F089E1BDC379C1D2712D1
:20DB200010A381273E300520F381412504805B80A5398E0074EEE41183DA132728DC1FDD64
:20DB400043C30007DD419E1D9F47BDD3DE9E419F1F9E459F1D9E47DC37ED814F5FED84EDDD
:20DB600002A7049F393990800000009D7CBDD8CD96542B5DBDD8CF964F819025088EDB6694
:20DB8000BDE3E2264CBDE414DC5239DC053406125F9E3734148DD435349F37DE5234605C0C
:20DBA0009D82812C27EBD703BDD9F33506DD059E1D9C1F2721DC3710A3842706EC02308B29
:20DBC00020EFC6129605260BD603E1042759C6108CC6087ED406CC0005DD64DC37ED84D660
:20DBE00003E704BDD3F39F41C60B4F0D0527053506C30001ED058D5DDD6430020A0326E80D
:20DC00009F0FD30F1025F7FC1F01BDD3F7830035DD1F4F301FA7059C0F26F89E41961F93B7
:20DC200041ED029605262DE604D7034F5FDD643506DD5210A305243ADE6427048D17D3525D
:20DC400030020A0326E7EDE358495849E3E1308B30059F393986109745EC05DD174F5F5844
:20DC600049250F086509642404D31725050A4526EE397EDBCE1F40931F214F0F06DD50C6C5
:20DC8000907EE3CEBDD8CFCE01F0BDE52832628E01EF200B9F4D8D5C9F58D75639301F8694
:20DCA000229701970230019F629F58C6FF5CA680270C91012704910226F381222702301FEA
:20DCC0009F64D756DE62118301F022078DC69E62BDDDCC9E0B8C00F12605C61E7ED406964A
:20DCE00056A700DC58ED0286FF97069F0D9F5230059F0B390F074F3406DC23A3E010932148
:20DD0000250ADD239E2330019F253584C61A030727CA8D04350420DE9E279F234F5FDD4B65
:20DD20009E219F478E00C99C0B27048D3220F89E1B9C1D27048D2220F89F419E419C1F2739
:20DD400035EC02D341DD41A6012AF0E60458CB053A9C4127E88D0820F8A60130022A14E6CB
:20DD6000842710EC02109323220910934723049F4BDD473005399E4B27FB4FE6845AD34744
:20DD8000DD439E239F41BDD3E09E4BDC45ED029E45301F7EDD1ADC523406BDD9AFBDD8D29E
:20DDA00035109F62E6849E52EB842405C61C7ED406BDDC949E62E6848D109E4D8D228D0C8A
:20DDC0009E628D1CBDDCD37ED8F4AE02DE255C2004A680A7C05A26F9DF2539BDD8D29E5217
:20DDE000E6848D182613AE07301F9C2326083404D323DD233504300139AE02399C0D26075A
:20DE00009F0B301B9F0D4F398D037EDC7A8DCC0F065D39BDDE95C601BDDCF49653BDDC98D3
:20DE2000A78432627EDCD38D0220DF8DE0275EE684398D484FE1842303E6844F3406BDDC98
:20DE4000969E4D8D9B35043A3504BDDDCC20D58D2BA0844020DFC6FFD7539D828129270513
:20DE6000BDD9F98D2D8D1527245F4AA18424CD1F89E08450D15323C4D65320C0BDD9F3EEC6
:20DE8000E4AE659F4DA664E66432671F357EDBD19D7CBDD8CDBDDB704D26F20E82BDDE0D14
:20DEA000102702E1DE839F833AA68434526F849D82BDE45E3552A784DF83398D079F2BBD62
:20DEC000D9F920CEBDD8CD96542BC2964F819022BCBDE4149E52398DEEE6847EDC7A8DDB76
:20DEE0009E2BE784393401BDD717BDD4A59F66350127129D82271381A726099D7C2706BD78
:20DF0000D717270639CEFFFFDF2B32629E66BDE0ACBDD19AEC8426037ED4259F66EC0210BB
:20DF2000932B22F4BDE518BDE0F89E668D10AE9F0066CE00F4A6C027D5BDE0FD20F7300461
:20DF4000108E00F4A68027512B15813A260DE684C18427F0C18327EC8C86218D3020E5CE83
:20DF6000D0E781FF2604A6803345847F334A6DC427E7A0C42AF6ABC4EE414A2B066DC02AEF
:20DF8000FC20F7A6C48D066DC02AF820B7108C01ED2406847FA7A06FA4399E83CE00F30F10
:20DFA000430F44A68027210D43270FBDDB29241881302504813923100F438120270A974216
:20DFC000812227380D442719A7C02706813A27CF20D16FC06FC01F308300F18E00F29F83B5
:20DFE00039813F2604868720DF81272613CC3A83EDC10F42A68027D0914227CCA7C020F42B
:20E0000081302504813C25C0301F34500F41CED0E70F42334AA6C4273110AE41AEE4E6A035
:20E02000E08027FAC180263832623540DA4296412606C1842606863AEDC12094E7C0C18617
:20E0400026020C44C18227AA2086CED0EC034126C03550A680A7C0BDDB2925EC034320E8A8
:20E060000C424A27AE313FE6A02AFC20AF27398D0139BDEFD2273E819F2753812C27378118
:20E080003B2760BDD8E2960634022606BDE525BDDC9D8D573504BDD1335D26089D82812C17
:20E0A00027148D549D8226CF860D2051BDD13327F7966C26F339BDD133270AD66CD16B2564
:20E0C000068DE5201ED66CD06A24FC502010BDDE9081291026F92CBDD133D06C23058D1874
:20E0E0005A26FB9D7C7EE075BDDC9FBDDDDE5C5A27C3A6808D0720F786208C863F7ED0173C
:20E100008EE60C2009BDE27B035403622003BDE27B5D102702808E005C1F895D276CD04F8C
:20E120002769250A974F966197548E004F50C1F82F594F6401BDE206D6622A0B630163025B
:20E140006303630443890097639653996097539652995F97529651995E97519650995D975E
:20E16000505D2A4425028D5D5F9650262E965197509652975196539752966397530F63CB4A
:20E1800008C1282DE44F974F9754398D6D5F20A85C086309530952095109502AF3964F349C
:20E1A00004A0E0974F23DE8C2508086386009763200C0C4F272806500651065206532404F4
:20E1C0008D0D27EE39035403500351035203539E5230019F5226069E5030019F5039C60A59
:20E1E0007ED4068E0012A6049763A603A704A602A703A601A702965BA701CB082FE8966311
:20E20000C008270C6701660266036604465C26F43981000000008D6327608D78860097133E
:20E22000971497159716D6538D22D663D78BD6528D1AD663D78AD6518D12D663D789D65079
:20E240008D0CD663D788BDE3577EE1682795439613562726241696169B6097169615995F53
:20E2600097159614995E97149613995D46971306140615061606634F20D539EC0197618A71
:20E2800080DD5DD661D854D762EC03DD5FA684975CD64F394D27169B4F464928108B8097A5
:20E2A0004F270C966297543996544320023262102AFED27EE1DEBDE3AB270D8B0225F40F62
:20E2C00062BDE1190C4F27EB398420000000BDE3AB8EE2C95FD762BDE3608C8D9E2773006E
:20E2E0004F8DB10C4F27CC8E0013C604D703C6019650915D26139651915E260D9652915F49
:20E300002607965391602601431FA859240AE7800A032B34272EC6011F8A250E0860095FA3
:20E32000095E095D25E32BC820DF966090539760965F9252975F965E9251975E965D9250D6
:20E34000975D20D8C64020D0565656D7638D087EE168C6147ED4069E139F509E159F523994
:20E360003402EC0197548A80DD500F63E684AE039F52D74F35828E004520068E00408C9E0C
:20E380003B964FA78496548A7F9450A7019651A702DE52EF0339966197549E5C9F4F0F638C
:20E3A000965E975196549E5F9F5239DC4FDD5C9E519F5E9E539F604D39D64F2708D65459D3
:20E3C000C6FF250150398DF1D7500F51C68896508080D74FDC74DD52976397547EE1640F34
:20E3E0005439E68427D3E601D8542BD1D64FE184261DE601CA7FD450E1012613D651E102D7
:20E40000260DD652E1032607D653E00426013956D85420ABD64F273DC0A096542A05035B76
:20E42000BDE1C78E004FC1F82E06BDE1FA0F5B390F5B96544906507EE206D64FC1A0241D52
:20E440008DD2D7639654D754808086A0974F965397017EE164D750D751D752D753399E74D1
:20E460009F549F4F9F519F529F479F452564BDEB9B812D260403552004812B26049D7C25DC
:20E4800051812E2728814526289D7C256481A7270E812D270A81A62708812B2704200603E5
:20E4A000489D7C254C0D48270800472004034626CC96479045974727122A09BDE2CE0C47A4
:20E4C00026F92007BDE2B60A4726F996552A8E7EE635D645D046D7453402BDE2B63504C024
:20E4E000308D022098BDE37BBDE3C88E00407EE10ED6475858DB475880303404ABE097474F
:20E50000209F9B3EBC1FFD9E6E6B27FD9E6E6B28008ED3A78D0CDC68DD50C69043BDE3D234
:20E520008D037EE0E8CE01F18620D6542A02862DA7C0DF6497548630D64F102700C64FC119
:20E540008022088EE50CBDE21686F797458EE507BDE3EC2E0F8EE502BDE3EC2E0EBDE2B6AF
:20E560000A4520F1BDE2CE0C4520E2BDE100BDE414C60196458B0A2B09810B24054A1F8916
:20E5800086024A4A9747D7452E0DDE64862EA7C05D27048630A7C08EE611C6809653AB03C6
:20E5A00097539652A90297529651A90197519650A98497505C565928E32403C00B50CB2F30
:20E5C00030041F98847FA7C00A452604862EA7C053C4808CE63526C4A6C2813027FA812E41
:20E5E0002602335F862BD647271C2A03862D50A7428645A741862F4CC00A24FBCB3AED4365
:20E600006F452004A7C46F418E01F1398000000000FA0A1F0000989680FFF0BDC00001860A
:20E62000A0FFFFD8F0000003E8FFFFFF9C0000000AFFFFFFFF964F27020354399F64BDE3A9
:20E640007B8D058D088E00407EE2169F64BDE3769E64E680D7559F648DEE9E6430059F646F
:20E66000BDE10E8E00450A5526EE39BDE3B92B1F27158D10BDE37B8D0E8E00408DCA8EE2A8
:20E6800011BDE10E7EE43A9EB19F509EB39F52BEE6BC9F5DBEE6BE9F5FBDE21CDC8AC3659C
:20E6A0008BDDB3DD52DC88C9B08905DDB1DD500F548680974F961597637EE16840E64DAB11
:20E6C000BDE3AB8EE705D661BDE2D5BDE3AB8DB40F62965CD64FBDE1088EE70ABDE1059658
:20E6E0005434022A09BDE10096542B05030ABDE6358EE70ABDE10E35024D2A03BDE6358E7E
:20E70000E70F7EE63C83490FDAA27F000000000584E61A2D1B862807FBF88799688901877B
:20E720002335DFE186A55DE72883490FDAA2A154468F138F524389CD8EE76BBDE10E7EE68C
:20E74000C0BDE37B0F0A8DF68E004ABDE3818E0040BDE3600F54960A8D0C0D4F1027FA7ED4
:20E760008E004A7EE2DB34027EE6EE81490FDAA2965434022A028D24964F34028181250565
:20E780008EE2118DDE8EE7A0BDE63C3502818125068EE76BBDE10535024D2A037EE635392F
:20E7A0000B76B383BDD3791EF4A6F57B83FCB0107C0C1F67CA7CDE53CBC17D1464704C7DF3
:20E7C000B7EA517A7D6330887E7E9244993A7E4CCC91C77FAAAAAA138100000000037F5EB1
:20E7E00056CB7980139B0B6480763893168238AA3B20803504F334813504F334808000008B
:20E800000080317217F8BDE3B9102FF3C48EE7F2964F808034028680974FBDE10E8EE7F7F1
:20E82000BDE2DB8EE211BDE1058EE7DDBDE63C8EE7FCBDE10E3504BDE4E58EE8017EE21640
:20E84000BDE3AB8EE60CBDE36027674D26037EE1868E004ABDE3815F96612A10BDE43A8E12
:20E86000004A9661BDE3EC260343D601BDE3983404BDE8068E004ABDE2168D363502461090
:20E8800025FDB2398138AA3B29077134583E5674167EB31B772FEEE3857A1D841C2A7C63FA
:20E8A00059580A7E75FDE7C6803172181081000000008EE884BDE216BDE37B964F81882557
:20E8C000037EE2A8BDE43A96018B8127F44A34028E0040BDE1058EE889BDE64B0F6235020E
:20E8E000BDE29439BDE3B92B037EE43A03548DF97EE635BDED21326286019798BDD4A510B8
:20E9000025ED7FBDDF3E1F208300F5D797DC2BBDE518BDE0F88E00F4D69826255FBDEA4789
:20E92000BDF1EC250B80303402860A3DEBE020EDC001C90181412605BDE0A820BB814C26F7
:20E940000B8D310F98BDE0A820C33262810D260D8D22BDE0A88E00F49F837ED44E814527A5
:20E96000F181512606BDE0A87ED4258D0220AD812026108CC6F9A6842708BDD01730015AE6
:20E9800026F439814426486D8427F78D045A26F7390A97311F3121A621A7A426F83981492B
:20E9A00027138158270D8148265C6F841F108300F5D7978DBFBDEA47810D278E811B272558
:20E9C000810826228C00F427EC8D458DC420E6814326CB6D84270EBDEA47250220F5A7807E
:20E9E0008D375A26EE39D697C1F9260220C734106D8026FCE682E701ACE426F83262A7806A
:20EA00008D170C9720AF810826128D045A26FB398C00F427D0301F86087ED017814B270529
:20EA2000805327013934028D1E3402A68427166D6126068DE430012003BDE991A684A1E47F
:20EA400026E95A26E635A0BDD003817F24F9815F2602861B810D270E811B270A81082706D0
:20EA6000812025E31A0139864F978C398600D6791D7EDC7BBDD9F6DC1F3406BDDADEBDD9D5
:20EA8000F335061E109C1F26517EDC7B9D7CBDD9F6BDDADE3410EC021093212304932723FF
:20EAA00012E684BDDCF43410AE62BDDDCA3550AF423440BDDEBF34045D271FC6FF812927E0
:20EAC00003BDDEBF3404BDD9F3C6AEBDD9FB8D2E1F13AE62A684A06124037EDBD14CA1E4C9
:20EAE0002402A7E4A6611E89AE025A3A4D270DA1E42302A6E41F891E31BDD1B13596BDD828
:20EB0000E27EDDDBBDD9F6BDDE923404BDD9F9BDD8E2BDD9F396062605BDDE952003BDDEA8
:20EB20002B3404E661BDDC9635062705A7805A26FB7EDE22BDD9F6BDD8E2C60134049606D7
:20EB40002610BDDE95E7E42791BDD9F9BDD8E2BDD8D29E523410BDD9F9BDEAFE3414BDD919
:20EB6000F3AE63BDDDE03404E1662523A661271CE6665A3A3184EE62E661A6E4A0664CA15D
:20EB800061250CA680A1C0260C5A26F7E666215F32677EDC7A6C66302120D98126265C3203
:20EBA000620F520F538E00529D7C814F2712814827239D82200C81381022EE47C6038D2A30
:20EBC0009D7C25F20F500F510F060F630F54C6A0D74F7EE1689D7C250BBDDB2925E681472C
:20EBE00024E28007C6048D0220EB680169841025F5EC5A26F58030AB01A7013935400F067C
:20EC00009E839D7C8126279981B0275E81FF26089D7C8183102700AB9F836EC49E68300165
:20EC200026D9C6167ED406AE9F00838CFF83102700748D238DE6BDD9F6C680D708BDDADECF
:20EC40008D25BDD9F3C6AEBDD9FB9E4BDC83ED84DC39ED027ED690C6B0BDD9FBC680D708A7
:20EC60008A80BDDAE39F4B7ED8CF8DEB3410BDD9EE8DF43540C632AE4227A9109E83EEC430
:20EC8000DF83A6043402EC84EE023476BDE381BDD8CD3576ED84EF023502A7049D82102661
:20ECA000ED61109F83399D7C8D0934108D2D3540AFC4395F9D7C240680301F899D7C9E8D8F
:20ECC000583A398DEEAE843410BDD9EE8E004F96062707BDDDDE9E52960639C6AEBDD9FB0B
:20ECE0007EDEC41027EEEABDD717BDD4A59F939D82271081A7263B9D7C27048D2420048654
:20ED0000FF972BDE938CEEC4ECC42706EC42932B23F49E938D15BDD4C59E93BDD4957ED4D1
:20ED200025BDD7177ED1BAA6C0A78011931B26F79F1B39BDEC1C9D7C8122260BBDD9D0C6C0
:20ED40003BBDD9FBBDE0EB327EBDD7CC3262BDDADE9F3BBDD8D28E00F34FBDDCA37ED75450
:20ED6000BDD7179E2B399E919F2B7ED4A5BDD4CACC000ADD95DD8F5FDD919D8224068DE064
:20ED80009F959D82271BBDD9F924068DD39F919D82270EBDD9F924068DC69F8F2749BDD109
:20EDA000BA8DC39F939E958DBF9C93253A8D1CBDEE41BDD4938DAF9F938D3A8D0F8D36BD00
:20EDC000EEDCBDD4CABDD4937ED425864F97989E93DC958D150D982602ED02AE848D0BD3D2
:20EDE0008F250481FA25EE7EDBD13406EC84350626023262399E19301F30018DED300330B5
:20EE000001A68427F49F0F4A270C4A272A4A26EF8603A78020E7EC016A0227014FE6036AAD
:20EE20000427015FED01DD2BBDD4A59E0F25E1DC476C80ED8420C66F84AE01AE029F4720AA
:20EE4000EA9E1920049E8330018D9F300230019F839D7C4D27EF2AF99E8381FF27EF81A271
:20EE600027128184270E818126E79D7C81A0270481A126DB9D7C25049D8220D79E833410CB
:20EE8000BDD7179E83A682BDF1EC25F930011F10E061C0052720250A3384503085BDED2B59
:20EEA00020149F479E1B9F435030859F419F1BBDD3DE9E459F8335108601A784A702A70440
:20EEC000D62B2604C6016C02E701D62C2604C6016C04E7039D82812C279A209C9E19301F4E
:20EEE0003001EC02DD68BDEDEA30033001A68427EF4A271B800226F334108EEF39BDE0E8D0
:20EF0000AEE4EC01BDE518BDE511BDE0A835103410EC01DD52BDEBC4BDE5253540C6053078
:20EF200001A68427055AA7C020F530C45D27BE31C433C5BDED2B30A420B3554C2000BDDEA9
:20EF4000C78E01F0C60434045F860408530952594A26F85D260AA6E44A27058C01F0270CCC
:20EF6000CB30C1392302CB07E7806F8435045A26D532628E01EF7EDC9F860197995ABDF1F3
:20EF80001A9D8210270093D793BDD8E2BDD8D29E529F4DD699BDDE34BDE0EB9E52D699E045
:20EFA000845A102B014FBDE0F820F6D7939F0F86029799A684812527C4812026070C99300F
:20EFC000015A26EF9E0FD6938625BDF11ABDD017202981B12701393262BDD8E4BDD8D2C67E
:20EFE0003BBDD9FB9E529F952006969727089E950F97E68426037EDBD1AE020F9A0F99A662
:20F000008081211027FF728123275B5A2616BDF11ABDD0179D8226D296972603BDE0A89EAE
:20F02000957EDDE0812B2609BDF11A8608979A20CC812E274E81251027FF70A184268B81EB
:20F04000242719812A26F6969A8A20979AC1022511A6018124260B5A30010C99969A8A100A
:20F06000979A30010C990F980C995A2749A680812E271E812327F1812C2621969A8A409718
:20F080009A20E5A68481231026FF3F8601979830010C985A2720A680812327F5815E261662
:20F0A000A1842612A101260EA102260AC1042506C00430040C9A301F0C99969A85082618CD
:20F0C0000A995D2713A684802D270681FE260986088A049A9A979A5A9D821027FF3CD7936E
:20F0E000BDD8CD96999B9881111022EAE4BDF127301FBDE0E80F979D82270D9797813B2707
:20F1000005BDD9F920029D7C9E95E684D093AE023AD6931026FEE47EF0143402862B0D9AA5
:20F120002703BDD0173582CE01F2C620969A85082702C62B0D542A040F54C62DE7C0C6304A
:20F14000E7C08401102601078EE50CBDE3EC2B15BDE525A68026FCA682A7018C01F126F780
:20F160008625A78439964F97472703BDF30F9647102B0081409B998009BDF22CBDF3A5BD51
:20F18000F3449647BDF3C39647BDF38B96982602335F4ABDF22CBDF2C74D2706C12A2702BF
:20F1A000E7C06FC48E01F130019F0F963A901090992738A684812027EE812A27EA4F3402FD
:20F1C000A680812D27F8812B27F4812427F08130260EA6018D1625083502A78226FA20C7F6
:20F1E00035024D26FB9E0F8625A7823981302504803A80C639969827014A9B472B014F346C
:20F20000022A0A3402BDE2CE35024C20F49647A0E097478B092B199699800990478D0DBD85
:20F22000F3A5201D34028630A7C035024A2AF53996998DF8BDF38F86F790478DEF0F450FA7
:20F2400097BDF34496982602DE399B4716FF43964F34022703BDF30F969827014A9B997F25
:20F2600001F1D69AC40426037301F1BB01F1800934022A0A3402BDE2CE35024C20F4A6E472
:20F280002B014F409B994CBB01F197450F97BDF3443502BDF3C396982602335FE6E0270988
:20F2A000D647CB09D099F001F1862B5D2A03862D50A7418645A7C1862F4CC00A24FBCB3ACA
:20F2C000EDC16FC47EF1968E01F2E68434048620D69AC52035042708862AC12026021F8961
:20F2E0003404A780E6842710C145270CC13027F2C12C27EEC12E26048630A782969A85100C
:20F300002704C624E782840435042602E7823934404F9747D64FC18022118EE50CBDE21676
:20F320009647800920ECBDE2CE0C478EE507BDE3EC2EF38EE502BDE3EC2E07BDE2B60A4798
:20F3400020F135C03440BDE100BDE41435408EE611C6808D369653AB0397539652A9029732
:20F36000529651A90197519650A98497505C565928E32403C00B50CB2F30041F98847FA7E1
:20F38000C053C4808CE63526CA6FC40A452609DF39862EA7C00F97390A9726088603979736
:20F3A000862CA7C03996478B0A97454C800324FC8B059797969A8440260297973934028DBA
:20F3C000CA35024A2B0A34028630A7C0A6E026ED3981891027F95C7EDA03FFFFFFFFFFFF9D
:20F3E000FFFFFFFFFFFFFFFFFFFFFFFFFFFFFFFFFFFFFFFFFFFFFFFFFFFFFFFFFFFFFFFF2D
:20F40000FFFFFFFFFFFFFFFFFFFFFFFFFFFFFFFFFFFFFFFFFFFFFFFFFFFFFFFFFFFFFFFF0C
:20F42000FFFFFFFFFFFFFFFFFFFFFFFFFFFFFFFFFFFFFFFFFFFFFFFFFFFFFFFFFFFFFFFFEC
:20F44000FFFFFFFFFFFFFFFFFFFFFFFFFFFFFFFFFFFFFFFFFFFFFFFFFFFFFFFFFFFFFFFFCC
:20F80000308D78BE1F101F8B979D3384318C35EF81C61634041F20E3A1ED816AE426F6C65A
:20F820000DA6A0A7805A26F9318DF7D48E20FEACA12602ADA43584328D78168DC34F1F8B8B
:20F840003F0820F9015C028E028C028A026C028600450227FFE3028C028002920286028F3E
:20F86000028C039602B302CE02BB78920479012DA0000005000000000000000039019001FA
:20F88000AD01C701BF0171016F01BC017500550179025201CD6A8D77F7170221EE6A335FA4
:20F8A0000DFB2611170697505A2B0A11A3A126F8EF6A16021A0FFB3706C10B1022020BEF37
:20F8C0006A58338CB8ECC56ECB41535349535430390410DF976D61260DAD9D77F9AD9D77BF
:20F8E000FB308CE53F039EF6270D6F026F03CC01A6A701E7846F013F061706422A0C50D788
:20F90000FA5A2B06A630A7B120F7AE6A9F93863E3F0133E4DF954F5FDD9BDD8FDD91C6027C
:20F920003407170450308D057D812E275A308D04E5812F27528120231434026C5F812F2733
:20F940004F17040727026A5E17042A20E8800DA75D9EC4E6802A109EEE5C27F710DE9530AC
:20F960008D01563F0220905AE15F24033A20E4315DA65F8002A75E5AA680A1A226EE6A5EFA
:20F9800026F53AEC1E308B6D5D32C4AD1E16FF7A6D5E2BC83088AEDC9B20EC0455C663FE0C
:20F9A000044205450443040F0444049504450597044703CA044C04D5044D0405044E04F5B1
:20F9C000044F0502045004A70452027C045604CF04570468FFA6803406C6103D8D043506C8
:20F9E000840F8B90198940196E9D76F28DE78DE5AF648620203DA66181342239109EC2EE7A
:20FA0000A6EF64AF7E272EAFA6202A8D5D8D5F24FA4D27F9817F27F5A7610D8F2617810DE0
:20FA20002604860A8DC20DF4260BA661308C09810A270F8DB30C903B04308CFC860D8DA863
:20FA4000860A8DA4A680810426F88D1E8D061FA9E7E420E18D1824058118260253398D0A98
:20FA60008D0C24FA811827F44F396E9D767CAD9D7666847F394F502D048D420D8F26340D92
:20FA8000902B29306C9CF82523308CE93F02098E308D76053F058D172537068E25339E91F6
:20FAA000272F301F9F9127298DAA25251603F71701B9390F8F1702EB3B3F072004E68D7557
:20FAC000DC1F9BA163272510DE97308CEC3F038DDE16FE258DE720F7DEF0A6C4442402A65A
:20FAE000413986139EF0A7848615A784393447DEF08D1B81102712D6F2810D2602D6F34FEA
:20FB0000E7E48C8D096AE42AFA35C717FF5CE6C4C50227F7A7413986116D6626014C3F014B
:20FB20000C8F3986143F014A3F010A8F8E61A8301F26FC39EE626D662754327D3F00815353
:20FB400026FA3F0081392722813126F26FE48D21E7618D1DE7628D19A66231CB8D13270CC0
:20FB60006D692B02E7A4E1A027F235924C27CD20F98D12C6103D8D0D3404ABE01F89AB6279
:20FB8000A7626A63393F001701D427F835F2DEF2AE643456CC0018D7F23F01C604DDF2EC07
:20FBA00068A362108300182502C6175CE7E4CB03E761308C333F035F30618D278D258D23B5
:20FBC000AE628D1F6AE426FAAF6253E76130618D14AE68AC6224C8308C113F03EC64DDF2DF
:20FBE0004F35D6EB8416FDED530104533930333030303046430D0A043F06C6063F075A26BA
:20FC0000FB5F1F9817FDDB3F073F075CC11025F23F06252F30643F05AE64C6103F045A26F8
:20FC2000FB3F07AE64C610A6802B0481202402862E3F015A26F1AC622409AF64A665482653
:20FC4000CF20B53F06398D234C8D21395043FF1341000A42000B58FF0D59FF0F55FF1153DF
:20FC6000FF01434300094450000C004F30E8103432318CD8ECA04D2F043F0120F7862D3F8E
:20FC80000130E56DE426126D3F27033F058C3F04ECA05D26DF3F0635B28D402710810D2709
:20FCA0001EE63F5A50583F075A26FB20E3A7E4DC9B6D3F2602A682ED84A6E4810D26D1308D
:20FCC0008D738EC6153502A7805A26F910EE88ECC615A68234025A26F920BC4F8C862097CC
:20FCE0008E6E9D740734148D5C2718918E27F89E9E814D27169E93815027109EA081572785
:20FD00000A35948D4427FC200AAE849F9B0D8E27F08D629E9B812B260E8D233402DC9B303F
:20FD20008B9F9B350220EC812D2707814027DA5F20CF8D0A3402DC9B4050820020E18D9D4E
:20FD4000273216FC170F9B0F9C8D2A8D112625C6103D860458099C099B4A26F820148130A1
:20FD6000251281392F0A8141250A814622068007840F1A04393F00811827C7398D013B350B
:20FD800030341026191701B6AE6C5A2B16A630ACA126F7813F260297FB0C8F1601061700A4
:20FDA000BBED6C17019800FA5A2BC9A6B4A730863FA7B120F38DC8357FADF13F0A20FC17B3
:20FDC000009ADD9E9E9E17FC0C862D3F0117FF0B270A812C260E9F9E300120F1D69C8D47C8
:20FDE000812C27E98127260C8D8B8127270C1F898D3520F4812026069F9E3F0720C6810A3A
:20FE00002608860D3F019F9E200A815E260A301E9F9E3F068D0720AC812F27F6399E9E34C5
:20FE20001030E43F0535909E9EE780E11F26039F9E393402863F3F0135828D20DDA0398D71
:20FE40001BC4F01F02302F25048D1130AB343010A3622302EDE4AD9D728835E017FE7E2630
:20FE600009812F2205810EDC9B3916FAEF8DED1F028DE96FE23426AD9D7269AD9D7267342C
:20FE800001AD9D7263350126E135B28D010133F133D427038DC68C4F5F344E20DA8DEFFFB6
:20FEA0008DBADD913262EEF80ADF99DEF6CC0701ED423B8DA7DDF23927058DA0DDF83930AC
:20FEC0006E9FF8398D961F018D9230013430A3E4EDE430611DA1E426023F04EEE4335FEFA4
:20FEE000843F053F063596272317FDF1272C812D263F17FDE827030FFA398D405A2B32ACDD
:20FF0000A126F9AEA1AF3C5A2AF90AFA8D2E27E930A13F055A26F93F06398D20C1082711E1
:20FF2000A684E784E1842609A7845A2B07ACA126F916FA28AFA46F310CFA20D09E9B318D5D
:20FF40007170D6FA396FE25F308C3F3F00815B26068610A7E43F00810D270C6D842BD2A115
:20FF60008126F8EB1F20EE308C491F988460AAE4A7E4C49F6D8427B9E18126F8E61FEAE48A
:20FF8000E7E430E43F043F06358441044205440648014801480148002C002D092D015370F5
:20FFA0005930555058102B072B015080430052005D00FF1084110012881389148615851667
:20FFC0008B1780188119821A83828C838D039F006E9D70F26E9D70F06E9D70EE6E9D70ECC6
:0CFFE0006E9D70EA6E9D70E86E9D70E6EC
:10FFF000FFD0FFD4FFD8FFDCFFE0FFE4FFE8F837D5
:00000001FF
