S12301007E01B67E01C03F01393F00397E047D6EFF50524904E0494E500800494620092470
S12301204C455407DA464F5209F54E45580A21474F5407E9474F5309A44F4E2008E452454A
S12301405409D05245410892444154088352455308DA44494D06C345585407654D4F4EF8EA
S123016037454E4401C052454D076852554E07C84C4953041453435201B600524E440B58AF
S12301804142530B5453474E0B4B0034128EFFFF86323F09351239BD018B8E01009F0A8E87
S12301A0000C2008BE010F9F0ABE0E1B4FA78430019C0A26F8398DDF8E0E1DBF0E1B8DE483
S12301C010CE7FFF8E00689F0A8DD48E0E1BAE849F088E0068BD030D8621BD0477BD02E2EC
S12301E027DEA784810D270930018C00B026EE20CF8E0068BD03549F31BD039F4D261A9E39
S123020004A684810D2608D62827B59712200ABD07AD270586107E0494963E9026973ED6C5
S1230220282606BD030D7E07A9BE010F9F379E319F04BD02B39F225D26225CA68430018145
S12302400D26F7F7025386FF508D4D9E22BC0E1B2708A684A784300120F39E229612263545
S1230260BE0E1BD63ECB02F702758D2C9C222708301FA684A78420F4301FBD06BA300130B9
S1230280019F229E04A68430019F049E223001A784810D26EC7E01C0FB0E1CB90E1BD73AE5
S12302A09739BD0D7D2407F70E1CB70E1B3986907E04949664D6638E0E1DBC0E1B26025C3D
S12302C039E184220A26F8A101220426F25F398D04300120E53402860D3001A18426FA357F
S12302E00239BD01098108261A8C0068271E301F8608BD01068620BD01068608BD01060A8F
S12303003E20DF81182705BD01060C3E399F228E0324A68481042707BD0477300120F39E23
S1230320220F1D390D0A0000000004810D2702813A39BD0BF24F976297639764398DF69722
S12303402897279726BD038B812B2706812D260403273001BD0DB2C103270596277E0C9B51
S123036030019728840FC6040864096309625A26F79B6497640C2620DB9E04A684812027B7
S12303800A300120F68DB6301F3001A684812027F8399E04BD0DB2C10226F0300120F5BD28
S12303A0038B9F049F228E0111C605A18426149F0A9E223001A6849F229E0A30015AC10202
S12303C026E93930015A26FBA68427F69F0A9E049F22A6849E0A20D18E0062C6021CFEA697
S12303E0842A18862DBD04770C1D200FA68485F025022707BD046F0C1D1A01A684C5FF2773
S123040006850F25022707BD04730C1D1A0130015A2AD939BD0392810D2725BD033D9F04DE
S1230420BD02B39F22BD0392810D26040C1B200C3001BD038BBD033D9664971B9E22200320
S12304408E0E1DBC0E1B2724BD030DC6011CFE8D9BA684810D27068D1E300120F43001963D
S12304601B27E08B99192704971B20D77E01C044444444840F8B30BD010C7E01063402B66D
S1230480A00085012603350239B6A001847F810326F486993402BD030D8E04D2BD03123514
S12304A0023402BD046F3502BD0473D61926037E01C08E04DBBD03129E04301F8C0E1D2700
S12304C008A684810D26F33001C6011CFEBD03EC20DD074552524F522023042041542004D3
S12304E0BD0392BD032B26037E05740F12812C2620D61D8620BD04775CC50726F6C1472248
S123050004D71D2003BD030D0C123001BD038B20D2813B27F38122260630018D6120470F29
S123052017815426069717864120068153262D8650A1012627BD0394BD0AB7BD0665D664E4
S12305402724961727075AD11D231B2002DB1D8620BD04770C1DD11D26F5200ABD0AB79F7A
S123056022BD03D89E22BD0DAD5A26037E04E386317E04940D122603BD030D7E0768A684A5
S12305808122270EBD032B270EBD04770C1D300120EC30017E038B86327E04949F04BD0D49
S12305A0B4C10226340F20A7E248ABE0801397219E2039A68430010F188DE15FA684810A95
S12305C02706810B2701395CA6013402A60234023404BD039235048128267B5D271530010F
S12305E0BD0AB996643402BD0C03BD0392812C266520034F34024C97183001BD0AB930016C
S12306009F043502971435029721350297209E20A6849716300130019F20BD033296149E84
S123062020301FA184222F9764BD03329616915E270223228B01199764BD0CA8BD0C7ABDCA
S1230640065B9620D621DB6499639720D721BD0C039E200F183986147E0494BD0332860389
S12306609764BD0CA896643402966334025FD763D76496628D18350234028D0E35028D0E60
S1230680350234028D0435022021444444448D1BD66348593404340248594859976435026C
S12306A0D7638D0935029B63976339840F9B64976424020C63399662A7849663A7019664E5
S12306C0A702399E069F37BD0392BD038BBD059C9F0ABD0392812826243001BD03858129B1
S12306E026064F5F3402201A812C26119664270D34023001BD0385C6018129270586407E0D
S12307000494966427F734029F049E0A860AE7E2ABE0A7849608A7019609A7029E0835022A
S1230720A78430013504E78430019F208B011934021F988B01191F89BD0335D764BD0332C4
S123074035029764BD0CA8BD063FBD0D7B23037E02AE9F089E043001BD038BBD032B270878
S123076030017E06CABD6F004F9712971C9718972C961926037E01C09E04860DC63AA1843C
S12307802708E184270D300120F43001BC0E1B27E430013001BD010CBD039F4D260B9E047C
S12307A08D0B270586107E0494AE846E84BD0DB2C10226133001BD038B813D2704812826F5
S12307C0068E0123971C5F39BD0197BD01A4BE010F9F068E0E1D0C1920B29E04961C2603BB
S12307E0BD0379BD09E37E0768BD0392BD0AB7BD02B35D270586167E04945CD7197E078C4C
S1230800BD03920F13BD038B812226073001BD057E203EBD05B59F338E00689613260786DB
S12308203F9713BD0477BD0109811826040F1320E7A784BD04773001812C2709810D26E6D5
S12308409712BD030D8E0068BD033D9E338D2E9F04812C26083001961227AA20A6BD032BC6
S12308602613961227037E0768BD0109810D26F9BD030D20F186457E0494BD05B5BD06B659
S12308807E03929619274BBD0392971A9F0C9F0E20409619273C961A273BBD0379BD038BBD
S12308A0BD05B59F339E049F359E0EBD0AB7A684BD032B26049E0C200230019F0E9E359FF0
S12308C0049E338DB8812C2604300120D0BD032B26037E076886517E04949F229E0C9F0EFC
S12308E09E2220EEBD0379BD0AB79664840F34020F1230013001A684815427029712BD0398
S12309007B9F2235024A2712E6843001C12C26049F2220F1C10D26F09E22D61227037E091C
S1230920AB7E07ECBD0392BD0AB7A6848D6A26633402A6018D6235022606E601AB0130012A
S123094030013402BD0AB73502840F80092B444848B7095BBD0C74BD0D8820FE2F182030FD
S12309602614202C2C1020282D0C2024270820202E04201C201D9E04A6848154260FBD033C
S1230980929F04BD0DB4C10326037E07EC7E07987E076886627E0494813B2306813E220272
S12309A05F395C39D61927E8BD03920C1BBD0AB7301FBD02D53001A6843402A601340210B0
S12309C0DF378E1E23BD0D7B23037E02AE7E07EF86730A1B2A037E049435023504BD02B7DA
S12309E07E07F2BD05B39F33BD03923001BD0AB79E337E06B6BD037934028DE79E089F37CA
S1230A009E063502A7849605301FA7849604301FA784301FBD0D7B22037E02AE9F067E0792
S1230A2068BD03799F1E9E06BC010F26059E04160080300130013001A18426EC301F301F19
S1230A40301F9F063001AE849F04BD05B59F33BD0392BD0AB7BD0BF29E33BD0BE59E04A6FF
S1230A608481532708BD03324C9764200ABD0394BD0AB79662971CBD0C7A8E0010BD06B6B1
S1230A80BD0C74BD0D88D61C2B061F8A2C1620041F8A2F109E063001300130019F069E1E11
S1230AA09F04200B8E0010BD0BE59E33BD06B67E076886817E04940F2C962C972D8D044D26
S1230AC026F23910DFFEBD0DAD9F04C10126048621204F54C1032603BD03329E04BD0DAD6C
S1230AE09F04C1042302C60558F70AED20FE20302020203E203220063402300120C81F4121
S1230B00D6189CFE270935025F8128102700825D270E4FD62C5AD12D26061F419CFE270594
S1230B20862010DEFE9E0439BD0BF29E04BD033D2063A601BD0DB4C1022629A6849F228EB8
S1230B40017BBD03A94D27CA7E07A9863F34029E227E0AC6864020F5BD0332BD0DF89764AD
S1230B609E222031D6FE3404D6FF3404D62D3404D6183404BD05B33504D7183504D72D35D7
S1230B8004D7FF3504D7FEBD0BF29E20BD0BE520069E0430019F041F419CFE2737350234E5
S1230BA0028128272FBD0DB4340454962C4AC1042704912D271E8109230486242013350262
S1230BC035048006488E0BD7AD96BD0D8828C886237E0B227E0ADB0C7A0C740D480C6C0C7F
S1230BE0A80CC90D5AA6849762A6019763A6029764398E003BE603E78430018C006226F516
S1230C000C2C398E0064E684E703301F8C003A26F50A2C391CFE8E00643401A6843501A930
S1230C2003193401A784301F8C006126EE35013404C60285F026015FDA30D7301F983504B2
S1230C40398D041A0120CF8E00678699A084A784301F8C006426F3840FA701390F30966553
S1230C601F89C40FD765972F9862972ED662C40FD7624D39966288F097628D878DDE2A0A4E
S1230C808DBF1F8A2809032F200D17FF87200A17FF71BD03328DAA0F30962F84F0C60FD433
S1230CA062D7629B6297623917FF588DAFBD0332C605965F2707BD0C140A5F26F95A273CBA
S1230CC08D489662BD0C2F20E917FF378E0065BD0D8B260586227E0B22BD0C5CBD0BF28DC3
S1230CE0296F026F03C6058D21BD0C478D3885F02614BD0C471CFE8D2F5A26EB962E8D9BAA
S1230D008E005E7E0C060C6420E286048E00641CFE3401350169843401301F8C005E26F36C
S1230D2035014A26E7391A018E0061965F840F975F3401A6843501A906193401A784301F55
S1230D408C005E26EE3501398D3E270BD6628D070C641F987E0C9B7E033517FEA65FD73036
S1230D60966727EABD0BF217FE998B991927183402BD0C5EBD0CAD350220EF9F399639912C
S1230D80372604D63AD138398E00625F6D02260E6D01260AA684840F2604A784C604A68406
S1230DA04684085D27028A049A301F8A39BD038B2002A684C601810D27195A340280282B0E
S1230DC0108118230F8132230681362604C60ACB023502399F248E0DDFE6869E2420F205E8
S1230DE0040A060107000B0303030303030303030301010101010809C6088E0000A6034847
S11E0E004848A803484869846901690269035A26ECA684819F22E18B00193944
S1046F003953
S9030000FC
